{
  "_format": "hh-sol-artifact-1",
  "contractName": "GiftCard",
  "sourceName": "contracts/GiftCard.sol",
  "abi": [
    {
      "inputs": [
        {
          "internalType": "address",
          "name": "initialOwner",
          "type": "address"
        }
      ],
      "stateMutability": "nonpayable",
      "type": "constructor"
    },
    {
      "inputs": [
        {
          "internalType": "address",
          "name": "sender",
          "type": "address"
        },
        {
          "internalType": "uint256",
          "name": "tokenId",
          "type": "uint256"
        },
        {
          "internalType": "address",
          "name": "owner",
          "type": "address"
        }
      ],
      "name": "ERC721IncorrectOwner",
      "type": "error"
    },
    {
      "inputs": [
        {
          "internalType": "address",
          "name": "operator",
          "type": "address"
        },
        {
          "internalType": "uint256",
          "name": "tokenId",
          "type": "uint256"
        }
      ],
      "name": "ERC721InsufficientApproval",
      "type": "error"
    },
    {
      "inputs": [
        {
          "internalType": "address",
          "name": "approver",
          "type": "address"
        }
      ],
      "name": "ERC721InvalidApprover",
      "type": "error"
    },
    {
      "inputs": [
        {
          "internalType": "address",
          "name": "operator",
          "type": "address"
        }
      ],
      "name": "ERC721InvalidOperator",
      "type": "error"
    },
    {
      "inputs": [
        {
          "internalType": "address",
          "name": "owner",
          "type": "address"
        }
      ],
      "name": "ERC721InvalidOwner",
      "type": "error"
    },
    {
      "inputs": [
        {
          "internalType": "address",
          "name": "receiver",
          "type": "address"
        }
      ],
      "name": "ERC721InvalidReceiver",
      "type": "error"
    },
    {
      "inputs": [
        {
          "internalType": "address",
          "name": "sender",
          "type": "address"
        }
      ],
      "name": "ERC721InvalidSender",
      "type": "error"
    },
    {
      "inputs": [
        {
          "internalType": "uint256",
          "name": "tokenId",
          "type": "uint256"
        }
      ],
      "name": "ERC721NonexistentToken",
      "type": "error"
    },
    {
      "inputs": [
        {
          "internalType": "address",
          "name": "owner",
          "type": "address"
        }
      ],
      "name": "OwnableInvalidOwner",
      "type": "error"
    },
    {
      "inputs": [
        {
          "internalType": "address",
          "name": "account",
          "type": "address"
        }
      ],
      "name": "OwnableUnauthorizedAccount",
      "type": "error"
    },
    {
      "anonymous": false,
      "inputs": [
        {
          "indexed": true,
          "internalType": "address",
          "name": "owner",
          "type": "address"
        },
        {
          "indexed": true,
          "internalType": "address",
          "name": "approved",
          "type": "address"
        },
        {
          "indexed": true,
          "internalType": "uint256",
          "name": "tokenId",
          "type": "uint256"
        }
      ],
      "name": "Approval",
      "type": "event"
    },
    {
      "anonymous": false,
      "inputs": [
        {
          "indexed": true,
          "internalType": "address",
          "name": "owner",
          "type": "address"
        },
        {
          "indexed": true,
          "internalType": "address",
          "name": "operator",
          "type": "address"
        },
        {
          "indexed": false,
          "internalType": "bool",
          "name": "approved",
          "type": "bool"
        }
      ],
      "name": "ApprovalForAll",
      "type": "event"
    },
    {
      "anonymous": false,
      "inputs": [
        {
          "indexed": false,
          "internalType": "uint256",
          "name": "_fromTokenId",
          "type": "uint256"
        },
        {
          "indexed": false,
          "internalType": "uint256",
          "name": "_toTokenId",
          "type": "uint256"
        }
      ],
      "name": "BatchMetadataUpdate",
      "type": "event"
    },
    {
      "anonymous": false,
      "inputs": [
        {
          "indexed": false,
          "internalType": "uint256",
          "name": "_tokenId",
          "type": "uint256"
        }
      ],
      "name": "MetadataUpdate",
      "type": "event"
    },
    {
      "anonymous": false,
      "inputs": [
        {
          "indexed": true,
          "internalType": "address",
          "name": "previousOwner",
          "type": "address"
        },
        {
          "indexed": true,
          "internalType": "address",
          "name": "newOwner",
          "type": "address"
        }
      ],
      "name": "OwnershipTransferred",
      "type": "event"
    },
    {
      "anonymous": false,
      "inputs": [
        {
          "indexed": true,
          "internalType": "address",
          "name": "from",
          "type": "address"
        },
        {
          "indexed": true,
          "internalType": "address",
          "name": "to",
          "type": "address"
        },
        {
          "indexed": true,
          "internalType": "uint256",
          "name": "tokenId",
          "type": "uint256"
        }
      ],
      "name": "Transfer",
      "type": "event"
    },
    {
      "inputs": [
        {
          "internalType": "address",
          "name": "to",
          "type": "address"
        },
        {
          "internalType": "uint256",
          "name": "tokenId",
          "type": "uint256"
        }
      ],
      "name": "approve",
      "outputs": [],
      "stateMutability": "nonpayable",
      "type": "function"
    },
    {
      "inputs": [
        {
          "internalType": "address",
          "name": "owner",
          "type": "address"
        }
      ],
      "name": "balanceOf",
      "outputs": [
        {
          "internalType": "uint256",
          "name": "",
          "type": "uint256"
        }
      ],
      "stateMutability": "view",
      "type": "function"
    },
    {
      "inputs": [
        {
          "internalType": "uint256",
          "name": "tokenId",
          "type": "uint256"
        }
      ],
      "name": "getApproved",
      "outputs": [
        {
          "internalType": "address",
          "name": "",
          "type": "address"
        }
      ],
      "stateMutability": "view",
      "type": "function"
    },
    {
      "inputs": [],
      "name": "getTotalFees",
      "outputs": [
        {
          "internalType": "uint256",
          "name": "",
          "type": "uint256"
        }
      ],
      "stateMutability": "view",
      "type": "function"
    },
    {
      "inputs": [],
      "name": "getTotalFeesWithdrawn",
      "outputs": [
        {
          "internalType": "uint256",
          "name": "",
          "type": "uint256"
        }
      ],
      "stateMutability": "view",
      "type": "function"
    },
    {
      "inputs": [
        {
          "internalType": "address",
          "name": "owner",
          "type": "address"
        },
        {
          "internalType": "address",
          "name": "operator",
          "type": "address"
        }
      ],
      "name": "isApprovedForAll",
      "outputs": [
        {
          "internalType": "bool",
          "name": "",
          "type": "bool"
        }
      ],
      "stateMutability": "view",
      "type": "function"
    },
    {
      "inputs": [],
      "name": "name",
      "outputs": [
        {
          "internalType": "string",
          "name": "",
          "type": "string"
        }
      ],
      "stateMutability": "view",
      "type": "function"
    },
    {
      "inputs": [],
      "name": "owner",
      "outputs": [
        {
          "internalType": "address",
          "name": "",
          "type": "address"
        }
      ],
      "stateMutability": "view",
      "type": "function"
    },
    {
      "inputs": [
        {
          "internalType": "uint256",
          "name": "tokenId",
          "type": "uint256"
        }
      ],
      "name": "ownerOf",
      "outputs": [
        {
          "internalType": "address",
          "name": "",
          "type": "address"
        }
      ],
      "stateMutability": "view",
      "type": "function"
    },
    {
      "inputs": [],
      "name": "renounceOwnership",
      "outputs": [],
      "stateMutability": "nonpayable",
      "type": "function"
    },
    {
      "inputs": [
        {
          "internalType": "address",
          "name": "to",
          "type": "address"
        },
        {
          "internalType": "string",
          "name": "message",
          "type": "string"
        },
        {
          "internalType": "string",
          "name": "signedBy",
          "type": "string"
        },
        {
          "internalType": "string",
          "name": "tokenURI",
          "type": "string"
        }
      ],
      "name": "safeMint",
      "outputs": [],
      "stateMutability": "payable",
      "type": "function"
    },
    {
      "inputs": [
        {
          "internalType": "address",
          "name": "from",
          "type": "address"
        },
        {
          "internalType": "address",
          "name": "to",
          "type": "address"
        },
        {
          "internalType": "uint256",
          "name": "tokenId",
          "type": "uint256"
        }
      ],
      "name": "safeTransferFrom",
      "outputs": [],
      "stateMutability": "nonpayable",
      "type": "function"
    },
    {
      "inputs": [
        {
          "internalType": "address",
          "name": "from",
          "type": "address"
        },
        {
          "internalType": "address",
          "name": "to",
          "type": "address"
        },
        {
          "internalType": "uint256",
          "name": "tokenId",
          "type": "uint256"
        },
        {
          "internalType": "bytes",
          "name": "data",
          "type": "bytes"
        }
      ],
      "name": "safeTransferFrom",
      "outputs": [],
      "stateMutability": "nonpayable",
      "type": "function"
    },
    {
      "inputs": [
        {
          "internalType": "address",
          "name": "operator",
          "type": "address"
        },
        {
          "internalType": "bool",
          "name": "approved",
          "type": "bool"
        }
      ],
      "name": "setApprovalForAll",
      "outputs": [],
      "stateMutability": "nonpayable",
      "type": "function"
    },
    {
      "inputs": [
        {
          "internalType": "bytes4",
          "name": "interfaceId",
          "type": "bytes4"
        }
      ],
      "name": "supportsInterface",
      "outputs": [
        {
          "internalType": "bool",
          "name": "",
          "type": "bool"
        }
      ],
      "stateMutability": "view",
      "type": "function"
    },
    {
      "inputs": [],
      "name": "symbol",
      "outputs": [
        {
          "internalType": "string",
          "name": "",
          "type": "string"
        }
      ],
      "stateMutability": "view",
      "type": "function"
    },
    {
      "inputs": [
        {
          "internalType": "uint256",
          "name": "tokenId",
          "type": "uint256"
        }
      ],
      "name": "tokenURI",
      "outputs": [
        {
          "internalType": "string",
          "name": "",
          "type": "string"
        }
      ],
      "stateMutability": "view",
      "type": "function"
    },
    {
      "inputs": [
        {
          "internalType": "address",
          "name": "from",
          "type": "address"
        },
        {
          "internalType": "address",
          "name": "to",
          "type": "address"
        },
        {
          "internalType": "uint256",
          "name": "tokenId",
          "type": "uint256"
        }
      ],
      "name": "transferFrom",
      "outputs": [],
      "stateMutability": "nonpayable",
      "type": "function"
    },
    {
      "inputs": [
        {
          "internalType": "address",
          "name": "newOwner",
          "type": "address"
        }
      ],
      "name": "transferOwnership",
      "outputs": [],
      "stateMutability": "nonpayable",
      "type": "function"
    },
    {
      "inputs": [
        {
          "internalType": "uint256",
          "name": "tokenId",
          "type": "uint256"
        }
      ],
      "name": "unwrapGiftCard",
      "outputs": [],
      "stateMutability": "nonpayable",
      "type": "function"
    },
    {
      "inputs": [],
      "name": "withdrawFees",
      "outputs": [],
      "stateMutability": "nonpayable",
      "type": "function"
    }
  ],
  "bytecode": "0x60806040523480156200001157600080fd5b5060405162003bb738038062003bb7833981810160405281019062000037919062000288565b806040518060400160405280600d81526020017f47696674204e46542043617264000000000000000000000000000000000000008152506040518060400160405280600881526020017f474e4654434152440000000000000000000000000000000000000000000000008152508160009081620000b5919062000534565b508060019081620000c7919062000534565b505050600073ffffffffffffffffffffffffffffffffffffffff168173ffffffffffffffffffffffffffffffffffffffff16036200013f5760006040517f1e4fbdf70000000000000000000000000000000000000000000000000000000081526004016200013691906200062c565b60405180910390fd5b62000150816200015860201b60201c565b505062000649565b6000600760009054906101000a900473ffffffffffffffffffffffffffffffffffffffff16905081600760006101000a81548173ffffffffffffffffffffffffffffffffffffffff021916908373ffffffffffffffffffffffffffffffffffffffff1602179055508173ffffffffffffffffffffffffffffffffffffffff168173ffffffffffffffffffffffffffffffffffffffff167f8be0079c531659141344cd1fd0a4f28419497f9722a3daafe3b4186f6b6457e060405160405180910390a35050565b600080fd5b600073ffffffffffffffffffffffffffffffffffffffff82169050919050565b6000620002508262000223565b9050919050565b620002628162000243565b81146200026e57600080fd5b50565b600081519050620002828162000257565b92915050565b600060208284031215620002a157620002a06200021e565b5b6000620002b18482850162000271565b91505092915050565b600081519050919050565b7f4e487b7100000000000000000000000000000000000000000000000000000000600052604160045260246000fd5b7f4e487b7100000000000000000000000000000000000000000000000000000000600052602260045260246000fd5b600060028204905060018216806200033c57607f821691505b602082108103620003525762000351620002f4565b5b50919050565b60008190508160005260206000209050919050565b60006020601f8301049050919050565b600082821b905092915050565b600060088302620003bc7fffffffffffffffffffffffffffffffffffffffffffffffffffffffffffffffff826200037d565b620003c886836200037d565b95508019841693508086168417925050509392505050565b6000819050919050565b6000819050919050565b6000620004156200040f6200040984620003e0565b620003ea565b620003e0565b9050919050565b6000819050919050565b6200043183620003f4565b6200044962000440826200041c565b8484546200038a565b825550505050565b600090565b6200046062000451565b6200046d81848462000426565b505050565b5b8181101562000495576200048960008262000456565b60018101905062000473565b5050565b601f821115620004e457620004ae8162000358565b620004b9846200036d565b81016020851015620004c9578190505b620004e1620004d8856200036d565b83018262000472565b50505b505050565b600082821c905092915050565b60006200050960001984600802620004e9565b1980831691505092915050565b6000620005248383620004f6565b9150826002028217905092915050565b6200053f82620002ba565b67ffffffffffffffff8111156200055b576200055a620002c5565b5b62000567825462000323565b6200057482828562000499565b600060209050601f831160018114620005ac576000841562000597578287015190505b620005a3858262000516565b86555062000613565b601f198416620005bc8662000358565b60005b82811015620005e657848901518255600182019150602085019450602081019050620005bf565b8683101562000606578489015162000602601f891682620004f6565b8355505b6001600288020188555050505b505050505050565b620006268162000243565b82525050565b60006020820190506200064360008301846200061b565b92915050565b61355e80620006596000396000f3fe60806040526004361061012a5760003560e01c806370a08231116100ab578063a22cb4651161006f578063a22cb465146103bd578063b88d4fde146103e6578063c87b56dd1461040f578063e985e9c51461044c578063f2fde38b14610489578063f582fcd9146104b25761012a565b806370a08231146102ea578063715018a6146103275780638da5cb5b1461033e57806395d89b411461036957806397f960fc146103945761012a565b806323b872dd116100f257806323b872dd1461021957806342842e0e14610242578063476343ee1461026b578063626e1ae7146102825780636352211e146102ad5761012a565b806301ffc9a71461012f57806303a80dfb1461016c57806306fdde0314610188578063081812fc146101b3578063095ea7b3146101f0575b600080fd5b34801561013b57600080fd5b50610156600480360381019061015191906124f6565b6104dd565b604051610163919061253e565b60405180910390f35b610186600480360381019061018191906126fd565b6104ef565b005b34801561019457600080fd5b5061019d61079a565b6040516101aa9190612837565b60405180910390f35b3480156101bf57600080fd5b506101da60048036038101906101d5919061288f565b61082c565b6040516101e791906128cb565b60405180910390f35b3480156101fc57600080fd5b50610217600480360381019061021291906128e6565b610848565b005b34801561022557600080fd5b50610240600480360381019061023b9190612926565b61085e565b005b34801561024e57600080fd5b5061026960048036038101906102649190612926565b610960565b005b34801561027757600080fd5b50610280610980565b005b34801561028e57600080fd5b50610297610a98565b6040516102a49190612988565b60405180910390f35b3480156102b957600080fd5b506102d460048036038101906102cf919061288f565b610aaa565b6040516102e191906128cb565b60405180910390f35b3480156102f657600080fd5b50610311600480360381019061030c91906129a3565b610abc565b60405161031e9190612988565b60405180910390f35b34801561033357600080fd5b5061033c610b76565b005b34801561034a57600080fd5b50610353610b8a565b60405161036091906128cb565b60405180910390f35b34801561037557600080fd5b5061037e610bb4565b60405161038b9190612837565b60405180910390f35b3480156103a057600080fd5b506103bb60048036038101906103b6919061288f565b610c46565b005b3480156103c957600080fd5b506103e460048036038101906103df91906129fc565b610cd7565b005b3480156103f257600080fd5b5061040d60048036038101906104089190612add565b610ced565b005b34801561041b57600080fd5b506104366004803603810190610431919061288f565b610d0a565b6040516104439190612837565b60405180910390f35b34801561045857600080fd5b50610473600480360381019061046e9190612b60565b610e1d565b604051610480919061253e565b60405180910390f35b34801561049557600080fd5b506104b060048036038101906104ab91906129a3565b610eb1565b005b3480156104be57600080fd5b506104c7610f37565b6040516104d49190612988565b60405180910390f35b60006104e882610f49565b9050919050565b600067016345785d8a00009050600061050782610faa565b9050600081836105179190612bcf565b90508034101561055c576040517f08c379a000000000000000000000000000000000000000000000000000000000815260040161055390612c75565b60405180910390fd5b600061056734610faa565b905080600b600082825461057b9190612bcf565b92505081905550600081346105909190612c95565b90506000600860008154809291906105a790612cc9565b9190505590506105b78a82610feb565b6105c18188611009565b6040518061012001604052808281526020018381526020018a81526020018981526020013373ffffffffffffffffffffffffffffffffffffffff16815260200160001515815260200160001515815260200142815260200160011515815250600960008381526020019081526020016000206000820151816000015560208201518160010155604082015181600201908161065c9190612f1d565b5060608201518160030190816106729190612f1d565b5060808201518160040160006101000a81548173ffffffffffffffffffffffffffffffffffffffff021916908373ffffffffffffffffffffffffffffffffffffffff16021790555060a08201518160040160146101000a81548160ff02191690831515021790555060c08201518160040160156101000a81548160ff02191690831515021790555060e082015181600501556101008201518160060160006101000a81548160ff021916908315150217905550905050600a60003373ffffffffffffffffffffffffffffffffffffffff1673ffffffffffffffffffffffffffffffffffffffff16815260200190815260200160002081908060018154018082558091505060019003906000526020600020016000909190919091505550505050505050505050565b6060600080546107a990612d40565b80601f01602080910402602001604051908101604052809291908181526020018280546107d590612d40565b80156108225780601f106107f757610100808354040283529160200191610822565b820191906000526020600020905b81548152906001019060200180831161080557829003601f168201915b5050505050905090565b600061083782611065565b50610841826110ed565b9050919050565b61085a828261085561112a565b611132565b5050565b600073ffffffffffffffffffffffffffffffffffffffff168273ffffffffffffffffffffffffffffffffffffffff16036108d05760006040517f64a0ae920000000000000000000000000000000000000000000000000000000081526004016108c791906128cb565b60405180910390fd5b60006108e483836108df61112a565b611144565b90508373ffffffffffffffffffffffffffffffffffffffff168173ffffffffffffffffffffffffffffffffffffffff161461095a578382826040517f64283d7b00000000000000000000000000000000000000000000000000000000815260040161095193929190612fef565b60405180910390fd5b50505050565b61097b83838360405180602001604052806000815250610ced565b505050565b61098861135e565b6000600c54600b5461099a9190612c95565b9050600081116109df576040517f08c379a00000000000000000000000000000000000000000000000000000000081526004016109d690613072565b60405180910390fd5b600b54600c8190555060003373ffffffffffffffffffffffffffffffffffffffff1682604051610a0e906130c3565b60006040518083038185875af1925050503d8060008114610a4b576040519150601f19603f3d011682016040523d82523d6000602084013e610a50565b606091505b5050905080610a94576040517f08c379a0000000000000000000000000000000000000000000000000000000008152600401610a8b90613124565b60405180910390fd5b5050565b6000610aa261135e565b600b54905090565b6000610ab582611065565b9050919050565b60008073ffffffffffffffffffffffffffffffffffffffff168273ffffffffffffffffffffffffffffffffffffffff1603610b2f5760006040517f89c62b64000000000000000000000000000000000000000000000000000000008152600401610b2691906128cb565b60405180910390fd5b600360008373ffffffffffffffffffffffffffffffffffffffff1673ffffffffffffffffffffffffffffffffffffffff168152602001908152602001600020549050919050565b610b7e61135e565b610b8860006113e5565b565b6000600760009054906101000a900473ffffffffffffffffffffffffffffffffffffffff16905090565b606060018054610bc390612d40565b80601f0160208091040260200160405190810160405280929190818152602001828054610bef90612d40565b8015610c3c5780601f10610c1157610100808354040283529160200191610c3c565b820191906000526020600020905b815481529060010190602001808311610c1f57829003601f168201915b5050505050905090565b3373ffffffffffffffffffffffffffffffffffffffff16610c6682610aaa565b73ffffffffffffffffffffffffffffffffffffffff1614610cbc576040517f08c379a0000000000000000000000000000000000000000000000000000000008152600401610cb390613190565b60405180910390fd5b6000610cc7826114ab565b9050610cd38133611714565b5050565b610ce9610ce261112a565b8383611873565b5050565b610cf884848461085e565b610d04848484846119e2565b50505050565b6060610d1582611065565b506000600660008481526020019081526020016000208054610d3690612d40565b80601f0160208091040260200160405190810160405280929190818152602001828054610d6290612d40565b8015610daf5780601f10610d8457610100808354040283529160200191610daf565b820191906000526020600020905b815481529060010190602001808311610d9257829003601f168201915b505050505090506000610dc0611b99565b90506000815103610dd5578192505050610e18565b600082511115610e0a578082604051602001610df29291906131ec565b60405160208183030381529060405292505050610e18565b610e1384611bb0565b925050505b919050565b6000600560008473ffffffffffffffffffffffffffffffffffffffff1673ffffffffffffffffffffffffffffffffffffffff16815260200190815260200160002060008373ffffffffffffffffffffffffffffffffffffffff1673ffffffffffffffffffffffffffffffffffffffff16815260200190815260200160002060009054906101000a900460ff16905092915050565b610eb961135e565b600073ffffffffffffffffffffffffffffffffffffffff168173ffffffffffffffffffffffffffffffffffffffff1603610f2b5760006040517f1e4fbdf7000000000000000000000000000000000000000000000000000000008152600401610f2291906128cb565b60405180910390fd5b610f34816113e5565b50565b6000610f4161135e565b600c54905090565b6000634906490660e01b7bffffffffffffffffffffffffffffffffffffffffffffffffffffffff1916827bffffffffffffffffffffffffffffffffffffffffffffffffffffffff19161480610fa35750610fa282611c19565b5b9050919050565b6000806069600584610fbc9190613210565b610fc69190613281565b90506000670de0b6b3a7640000905080821115610fe1578091505b8192505050919050565b611005828260405180602001604052806000815250611cfb565b5050565b806006600084815260200190815260200160002090816110299190612f1d565b507ff8e1a15aba9398e019f0b49df1a4fde98ee17ae345cb5f6b5e2c27f5033e8ce7826040516110599190612988565b60405180910390a15050565b60008061107183611d17565b9050600073ffffffffffffffffffffffffffffffffffffffff168173ffffffffffffffffffffffffffffffffffffffff16036110e457826040517f7e2732890000000000000000000000000000000000000000000000000000000081526004016110db9190612988565b60405180910390fd5b80915050919050565b60006004600083815260200190815260200160002060009054906101000a900473ffffffffffffffffffffffffffffffffffffffff169050919050565b600033905090565b61113f8383836001611d54565b505050565b60008061115084611d17565b9050600073ffffffffffffffffffffffffffffffffffffffff168373ffffffffffffffffffffffffffffffffffffffff161461119257611191818486611f19565b5b600073ffffffffffffffffffffffffffffffffffffffff168173ffffffffffffffffffffffffffffffffffffffff1614611223576111d4600085600080611d54565b6001600360008373ffffffffffffffffffffffffffffffffffffffff1673ffffffffffffffffffffffffffffffffffffffff168152602001908152602001600020600082825403925050819055505b600073ffffffffffffffffffffffffffffffffffffffff168573ffffffffffffffffffffffffffffffffffffffff16146112a6576001600360008773ffffffffffffffffffffffffffffffffffffffff1673ffffffffffffffffffffffffffffffffffffffff168152602001908152602001600020600082825401925050819055505b846002600086815260200190815260200160002060006101000a81548173ffffffffffffffffffffffffffffffffffffffff021916908373ffffffffffffffffffffffffffffffffffffffff160217905550838573ffffffffffffffffffffffffffffffffffffffff168273ffffffffffffffffffffffffffffffffffffffff167fddf252ad1be2c89b69c2b068fc378daa952ba7f163c4a11628f55a4df523b3ef60405160405180910390a4809150509392505050565b61136661112a565b73ffffffffffffffffffffffffffffffffffffffff16611384610b8a565b73ffffffffffffffffffffffffffffffffffffffff16146113e3576113a761112a565b6040517f118cdaa70000000000000000000000000000000000000000000000000000000081526004016113da91906128cb565b60405180910390fd5b565b6000600760009054906101000a900473ffffffffffffffffffffffffffffffffffffffff16905081600760006101000a81548173ffffffffffffffffffffffffffffffffffffffff021916908373ffffffffffffffffffffffffffffffffffffffff1602179055508173ffffffffffffffffffffffffffffffffffffffff168173ffffffffffffffffffffffffffffffffffffffff167f8be0079c531659141344cd1fd0a4f28419497f9722a3daafe3b4186f6b6457e060405160405180910390a35050565b6114b3612422565b6000600960008481526020019081526020016000206040518061012001604052908160008201548152602001600182015481526020016002820180546114f890612d40565b80601f016020809104026020016040519081016040528092919081815260200182805461152490612d40565b80156115715780601f1061154657610100808354040283529160200191611571565b820191906000526020600020905b81548152906001019060200180831161155457829003601f168201915b5050505050815260200160038201805461158a90612d40565b80601f01602080910402602001604051908101604052809291908181526020018280546115b690612d40565b80156116035780601f106115d857610100808354040283529160200191611603565b820191906000526020600020905b8154815290600101906020018083116115e657829003601f168201915b505050505081526020016004820160009054906101000a900473ffffffffffffffffffffffffffffffffffffffff1673ffffffffffffffffffffffffffffffffffffffff1673ffffffffffffffffffffffffffffffffffffffff1681526020016004820160149054906101000a900460ff161515151581526020016004820160159054906101000a900460ff16151515158152602001600582015481526020016006820160009054906101000a900460ff16151515158152505090506001151581610100015115151461170b576040517f08c379a0000000000000000000000000000000000000000000000000000000008152600401611702906132fe565b60405180910390fd5b80915050919050565b600082602001519050600015158360a00151151514611768576040517f08c379a000000000000000000000000000000000000000000000000000000000815260040161175f90613390565b60405180910390fd5b6001600960008560000151815260200190815260200160002060040160146101000a81548160ff0219169083151502179055506000600960008560000151815260200190815260200160002060010181905550600082905060008173ffffffffffffffffffffffffffffffffffffffff16836040516117e6906130c3565b60006040518083038185875af1925050503d8060008114611823576040519150601f19603f3d011682016040523d82523d6000602084013e611828565b606091505b505090508061186c576040517f08c379a0000000000000000000000000000000000000000000000000000000008152600401611863906133fc565b60405180910390fd5b5050505050565b600073ffffffffffffffffffffffffffffffffffffffff168273ffffffffffffffffffffffffffffffffffffffff16036118e457816040517f5b08ba180000000000000000000000000000000000000000000000000000000081526004016118db91906128cb565b60405180910390fd5b80600560008573ffffffffffffffffffffffffffffffffffffffff1673ffffffffffffffffffffffffffffffffffffffff16815260200190815260200160002060008473ffffffffffffffffffffffffffffffffffffffff1673ffffffffffffffffffffffffffffffffffffffff16815260200190815260200160002060006101000a81548160ff0219169083151502179055508173ffffffffffffffffffffffffffffffffffffffff168373ffffffffffffffffffffffffffffffffffffffff167f17307eab39ab6107e8899845ad3d59bd9653f200f220920489ca2b5937696c31836040516119d5919061253e565b60405180910390a3505050565b60008373ffffffffffffffffffffffffffffffffffffffff163b1115611b93578273ffffffffffffffffffffffffffffffffffffffff1663150b7a02611a2661112a565b8685856040518563ffffffff1660e01b8152600401611a489493929190613471565b6020604051808303816000875af1925050508015611a8457506040513d601f19601f82011682018060405250810190611a8191906134d2565b60015b611b08573d8060008114611ab4576040519150601f19603f3d011682016040523d82523d6000602084013e611ab9565b606091505b506000815103611b0057836040517f64a0ae92000000000000000000000000000000000000000000000000000000008152600401611af791906128cb565b60405180910390fd5b805181602001fd5b63150b7a0260e01b7bffffffffffffffffffffffffffffffffffffffffffffffffffffffff1916817bffffffffffffffffffffffffffffffffffffffffffffffffffffffff191614611b9157836040517f64a0ae92000000000000000000000000000000000000000000000000000000008152600401611b8891906128cb565b60405180910390fd5b505b50505050565b606060405180602001604052806000815250905090565b6060611bbb82611065565b506000611bc6611b99565b90506000815111611be65760405180602001604052806000815250611c11565b80611bf084611fdd565b604051602001611c019291906131ec565b6040516020818303038152906040525b915050919050565b60007f80ac58cd000000000000000000000000000000000000000000000000000000007bffffffffffffffffffffffffffffffffffffffffffffffffffffffff1916827bffffffffffffffffffffffffffffffffffffffffffffffffffffffff19161480611ce457507f5b5e139f000000000000000000000000000000000000000000000000000000007bffffffffffffffffffffffffffffffffffffffffffffffffffffffff1916827bffffffffffffffffffffffffffffffffffffffffffffffffffffffff1916145b80611cf45750611cf3826120ab565b5b9050919050565b611d058383612115565b611d1260008484846119e2565b505050565b60006002600083815260200190815260200160002060009054906101000a900473ffffffffffffffffffffffffffffffffffffffff169050919050565b8080611d8d5750600073ffffffffffffffffffffffffffffffffffffffff168273ffffffffffffffffffffffffffffffffffffffff1614155b15611ec1576000611d9d84611065565b9050600073ffffffffffffffffffffffffffffffffffffffff168373ffffffffffffffffffffffffffffffffffffffff1614158015611e0857508273ffffffffffffffffffffffffffffffffffffffff168173ffffffffffffffffffffffffffffffffffffffff1614155b8015611e1b5750611e198184610e1d565b155b15611e5d57826040517fa9fbf51f000000000000000000000000000000000000000000000000000000008152600401611e5491906128cb565b60405180910390fd5b8115611ebf57838573ffffffffffffffffffffffffffffffffffffffff168273ffffffffffffffffffffffffffffffffffffffff167f8c5be1e5ebec7d5bd14f71427d1e84f3dd0314c0f7b2291e5b200ac8c7c3b92560405160405180910390a45b505b836004600085815260200190815260200160002060006101000a81548173ffffffffffffffffffffffffffffffffffffffff021916908373ffffffffffffffffffffffffffffffffffffffff16021790555050505050565b611f2483838361220e565b611fd857600073ffffffffffffffffffffffffffffffffffffffff168373ffffffffffffffffffffffffffffffffffffffff1603611f9957806040517f7e273289000000000000000000000000000000000000000000000000000000008152600401611f909190612988565b60405180910390fd5b81816040517f177e802f000000000000000000000000000000000000000000000000000000008152600401611fcf9291906134ff565b60405180910390fd5b505050565b606060006001611fec846122cf565b01905060008167ffffffffffffffff81111561200b5761200a6125d2565b5b6040519080825280601f01601f19166020018201604052801561203d5781602001600182028036833780820191505090505b509050600082602001820190505b6001156120a0578080600190039150507f3031323334353637383961626364656600000000000000000000000000000000600a86061a8153600a858161209457612093613252565b5b0494506000850361204b575b819350505050919050565b60007f01ffc9a7000000000000000000000000000000000000000000000000000000007bffffffffffffffffffffffffffffffffffffffffffffffffffffffff1916827bffffffffffffffffffffffffffffffffffffffffffffffffffffffff1916149050919050565b600073ffffffffffffffffffffffffffffffffffffffff168273ffffffffffffffffffffffffffffffffffffffff16036121875760006040517f64a0ae9200000000000000000000000000000000000000000000000000000000815260040161217e91906128cb565b60405180910390fd5b600061219583836000611144565b9050600073ffffffffffffffffffffffffffffffffffffffff168173ffffffffffffffffffffffffffffffffffffffff16146122095760006040517f73c6ac6e00000000000000000000000000000000000000000000000000000000815260040161220091906128cb565b60405180910390fd5b505050565b60008073ffffffffffffffffffffffffffffffffffffffff168373ffffffffffffffffffffffffffffffffffffffff16141580156122c657508273ffffffffffffffffffffffffffffffffffffffff168473ffffffffffffffffffffffffffffffffffffffff16148061228757506122868484610e1d565b5b806122c557508273ffffffffffffffffffffffffffffffffffffffff166122ad836110ed565b73ffffffffffffffffffffffffffffffffffffffff16145b5b90509392505050565b600080600090507a184f03e93ff9f4daa797ed6e38ed64bf6a1f010000000000000000831061232d577a184f03e93ff9f4daa797ed6e38ed64bf6a1f010000000000000000838161232357612322613252565b5b0492506040810190505b6d04ee2d6d415b85acef8100000000831061236a576d04ee2d6d415b85acef810000000083816123605761235f613252565b5b0492506020810190505b662386f26fc10000831061239957662386f26fc10000838161238f5761238e613252565b5b0492506010810190505b6305f5e10083106123c2576305f5e10083816123b8576123b7613252565b5b0492506008810190505b61271083106123e75761271083816123dd576123dc613252565b5b0492506004810190505b6064831061240a5760648381612400576123ff613252565b5b0492506002810190505b600a8310612419576001810190505b80915050919050565b60405180610120016040528060008152602001600081526020016060815260200160608152602001600073ffffffffffffffffffffffffffffffffffffffff168152602001600015158152602001600015158152602001600081526020016000151581525090565b6000604051905090565b600080fd5b600080fd5b60007fffffffff0000000000000000000000000000000000000000000000000000000082169050919050565b6124d38161249e565b81146124de57600080fd5b50565b6000813590506124f0816124ca565b92915050565b60006020828403121561250c5761250b612494565b5b600061251a848285016124e1565b91505092915050565b60008115159050919050565b61253881612523565b82525050565b6000602082019050612553600083018461252f565b92915050565b600073ffffffffffffffffffffffffffffffffffffffff82169050919050565b600061258482612559565b9050919050565b61259481612579565b811461259f57600080fd5b50565b6000813590506125b18161258b565b92915050565b600080fd5b600080fd5b6000601f19601f8301169050919050565b7f4e487b7100000000000000000000000000000000000000000000000000000000600052604160045260246000fd5b61260a826125c1565b810181811067ffffffffffffffff82111715612629576126286125d2565b5b80604052505050565b600061263c61248a565b90506126488282612601565b919050565b600067ffffffffffffffff821115612668576126676125d2565b5b612671826125c1565b9050602081019050919050565b82818337600083830152505050565b60006126a061269b8461264d565b612632565b9050828152602081018484840111156126bc576126bb6125bc565b5b6126c784828561267e565b509392505050565b600082601f8301126126e4576126e36125b7565b5b81356126f484826020860161268d565b91505092915050565b6000806000806080858703121561271757612716612494565b5b6000612725878288016125a2565b945050602085013567ffffffffffffffff81111561274657612745612499565b5b612752878288016126cf565b935050604085013567ffffffffffffffff81111561277357612772612499565b5b61277f878288016126cf565b925050606085013567ffffffffffffffff8111156127a05761279f612499565b5b6127ac878288016126cf565b91505092959194509250565b600081519050919050565b600082825260208201905092915050565b60005b838110156127f25780820151818401526020810190506127d7565b60008484015250505050565b6000612809826127b8565b61281381856127c3565b93506128238185602086016127d4565b61282c816125c1565b840191505092915050565b6000602082019050818103600083015261285181846127fe565b905092915050565b6000819050919050565b61286c81612859565b811461287757600080fd5b50565b60008135905061288981612863565b92915050565b6000602082840312156128a5576128a4612494565b5b60006128b38482850161287a565b91505092915050565b6128c581612579565b82525050565b60006020820190506128e060008301846128bc565b92915050565b600080604083850312156128fd576128fc612494565b5b600061290b858286016125a2565b925050602061291c8582860161287a565b9150509250929050565b60008060006060848603121561293f5761293e612494565b5b600061294d868287016125a2565b935050602061295e868287016125a2565b925050604061296f8682870161287a565b9150509250925092565b61298281612859565b82525050565b600060208201905061299d6000830184612979565b92915050565b6000602082840312156129b9576129b8612494565b5b60006129c7848285016125a2565b91505092915050565b6129d981612523565b81146129e457600080fd5b50565b6000813590506129f6816129d0565b92915050565b60008060408385031215612a1357612a12612494565b5b6000612a21858286016125a2565b9250506020612a32858286016129e7565b9150509250929050565b600067ffffffffffffffff821115612a5757612a566125d2565b5b612a60826125c1565b9050602081019050919050565b6000612a80612a7b84612a3c565b612632565b905082815260208101848484011115612a9c57612a9b6125bc565b5b612aa784828561267e565b509392505050565b600082601f830112612ac457612ac36125b7565b5b8135612ad4848260208601612a6d565b91505092915050565b60008060008060808587031215612af757612af6612494565b5b6000612b05878288016125a2565b9450506020612b16878288016125a2565b9350506040612b278782880161287a565b925050606085013567ffffffffffffffff811115612b4857612b47612499565b5b612b5487828801612aaf565b91505092959194509250565b60008060408385031215612b7757612b76612494565b5b6000612b85858286016125a2565b9250506020612b96858286016125a2565b9150509250929050565b7f4e487b7100000000000000000000000000000000000000000000000000000000600052601160045260246000fd5b6000612bda82612859565b9150612be583612859565b9250828201905080821115612bfd57612bfc612ba0565b5b92915050565b7f4769667420636172642076616c7565206d75737420626520677265617465722060008201527f7468616e206f7220657175616c20746f20302e312043454c4f00000000000000602082015250565b6000612c5f6039836127c3565b9150612c6a82612c03565b604082019050919050565b60006020820190508181036000830152612c8e81612c52565b9050919050565b6000612ca082612859565b9150612cab83612859565b9250828203905081811115612cc357612cc2612ba0565b5b92915050565b6000612cd482612859565b91507fffffffffffffffffffffffffffffffffffffffffffffffffffffffffffffffff8203612d0657612d05612ba0565b5b600182019050919050565b7f4e487b7100000000000000000000000000000000000000000000000000000000600052602260045260246000fd5b60006002820490506001821680612d5857607f821691505b602082108103612d6b57612d6a612d11565b5b50919050565b60008190508160005260206000209050919050565b60006020601f8301049050919050565b600082821b905092915050565b600060088302612dd37fffffffffffffffffffffffffffffffffffffffffffffffffffffffffffffffff82612d96565b612ddd8683612d96565b95508019841693508086168417925050509392505050565b6000819050919050565b6000612e1a612e15612e1084612859565b612df5565b612859565b9050919050565b6000819050919050565b612e3483612dff565b612e48612e4082612e21565b848454612da3565b825550505050565b600090565b612e5d612e50565b612e68818484612e2b565b505050565b5b81811015612e8c57612e81600082612e55565b600181019050612e6e565b5050565b601f821115612ed157612ea281612d71565b612eab84612d86565b81016020851015612eba578190505b612ece612ec685612d86565b830182612e6d565b50505b505050565b600082821c905092915050565b6000612ef460001984600802612ed6565b1980831691505092915050565b6000612f0d8383612ee3565b9150826002028217905092915050565b612f26826127b8565b67ffffffffffffffff811115612f3f57612f3e6125d2565b5b612f498254612d40565b612f54828285612e90565b600060209050601f831160018114612f875760008415612f75578287015190505b612f7f8582612f01565b865550612fe7565b601f198416612f9586612d71565b60005b82811015612fbd57848901518255600182019150602085019450602081019050612f98565b86831015612fda5784890151612fd6601f891682612ee3565b8355505b6001600288020188555050505b505050505050565b600060608201905061300460008301866128bc565b6130116020830185612979565b61301e60408301846128bc565b949350505050565b7f4e6f206665657320746f20776974686472617720796574000000000000000000600082015250565b600061305c6017836127c3565b915061306782613026565b602082019050919050565b6000602082019050818103600083015261308b8161304f565b9050919050565b600081905092915050565b50565b60006130ad600083613092565b91506130b88261309d565b600082019050919050565b60006130ce826130a0565b9150819050919050565b7f4661696c656420746f2077697468647261772066656573000000000000000000600082015250565b600061310e6017836127c3565b9150613119826130d8565b602082019050919050565b6000602082019050818103600083015261313d81613101565b9050919050565b7f43616c6c6572206973206e6f74206f776e657200000000000000000000000000600082015250565b600061317a6013836127c3565b915061318582613144565b602082019050919050565b600060208201905081810360008301526131a98161316d565b9050919050565b600081905092915050565b60006131c6826127b8565b6131d081856131b0565b93506131e08185602086016127d4565b80840191505092915050565b60006131f882856131bb565b915061320482846131bb565b91508190509392505050565b600061321b82612859565b915061322683612859565b925082820261323481612859565b9150828204841483151761324b5761324a612ba0565b5b5092915050565b7f4e487b7100000000000000000000000000000000000000000000000000000000600052601260045260246000fd5b600061328c82612859565b915061329783612859565b9250826132a7576132a6613252565b5b828204905092915050565b7f476966742063617264206e6f7420666f756e6400000000000000000000000000600082015250565b60006132e86013836127c3565b91506132f3826132b2565b602082019050919050565b60006020820190508181036000830152613317816132db565b9050919050565b7f43616e6e6f7420756e7772617020616c726561647920756e777261707065642060008201527f6769667420636172640000000000000000000000000000000000000000000000602082015250565b600061337a6029836127c3565b91506133858261331e565b604082019050919050565b600060208201905081810360008301526133a98161336d565b9050919050565b7f4661696c656420746f20756e7772617020676966742063617264000000000000600082015250565b60006133e6601a836127c3565b91506133f1826133b0565b602082019050919050565b60006020820190508181036000830152613415816133d9565b9050919050565b600081519050919050565b600082825260208201905092915050565b60006134438261341c565b61344d8185613427565b935061345d8185602086016127d4565b613466816125c1565b840191505092915050565b600060808201905061348660008301876128bc565b61349360208301866128bc565b6134a06040830185612979565b81810360608301526134b28184613438565b905095945050505050565b6000815190506134cc816124ca565b92915050565b6000602082840312156134e8576134e7612494565b5b60006134f6848285016134bd565b91505092915050565b600060408201905061351460008301856128bc565b6135216020830184612979565b939250505056fea2646970667358221220a2649b22ec3254e7bfa8dc7b47bb2721c07cb6a3891d6b758443e074c33427d664736f6c63430008140033",
  "linkReferences": {},
  "deployedLinkReferences": {}
}