{
  "_format": "hh-sol-artifact-1",
  "contractName": "MGC",
  "sourceName": "contracts/MGC.sol",
  "abi": [
    {
      "inputs": [
        {
          "internalType": "address",
          "name": "initialOwner",
          "type": "address"
        }
      ],
      "stateMutability": "nonpayable",
      "type": "constructor"
    },
    {
      "inputs": [],
      "name": "ERC721EnumerableForbiddenBatchMint",
      "type": "error"
    },
    {
      "inputs": [
        {
          "internalType": "address",
          "name": "sender",
          "type": "address"
        },
        {
          "internalType": "uint256",
          "name": "tokenId",
          "type": "uint256"
        },
        {
          "internalType": "address",
          "name": "owner",
          "type": "address"
        }
      ],
      "name": "ERC721IncorrectOwner",
      "type": "error"
    },
    {
      "inputs": [
        {
          "internalType": "address",
          "name": "operator",
          "type": "address"
        },
        {
          "internalType": "uint256",
          "name": "tokenId",
          "type": "uint256"
        }
      ],
      "name": "ERC721InsufficientApproval",
      "type": "error"
    },
    {
      "inputs": [
        {
          "internalType": "address",
          "name": "approver",
          "type": "address"
        }
      ],
      "name": "ERC721InvalidApprover",
      "type": "error"
    },
    {
      "inputs": [
        {
          "internalType": "address",
          "name": "operator",
          "type": "address"
        }
      ],
      "name": "ERC721InvalidOperator",
      "type": "error"
    },
    {
      "inputs": [
        {
          "internalType": "address",
          "name": "owner",
          "type": "address"
        }
      ],
      "name": "ERC721InvalidOwner",
      "type": "error"
    },
    {
      "inputs": [
        {
          "internalType": "address",
          "name": "receiver",
          "type": "address"
        }
      ],
      "name": "ERC721InvalidReceiver",
      "type": "error"
    },
    {
      "inputs": [
        {
          "internalType": "address",
          "name": "sender",
          "type": "address"
        }
      ],
      "name": "ERC721InvalidSender",
      "type": "error"
    },
    {
      "inputs": [
        {
          "internalType": "uint256",
          "name": "tokenId",
          "type": "uint256"
        }
      ],
      "name": "ERC721NonexistentToken",
      "type": "error"
    },
    {
      "inputs": [
        {
          "internalType": "address",
          "name": "owner",
          "type": "address"
        },
        {
          "internalType": "uint256",
          "name": "index",
          "type": "uint256"
        }
      ],
      "name": "ERC721OutOfBoundsIndex",
      "type": "error"
    },
    {
      "inputs": [
        {
          "internalType": "address",
          "name": "owner",
          "type": "address"
        }
      ],
      "name": "OwnableInvalidOwner",
      "type": "error"
    },
    {
      "inputs": [
        {
          "internalType": "address",
          "name": "account",
          "type": "address"
        }
      ],
      "name": "OwnableUnauthorizedAccount",
      "type": "error"
    },
    {
      "anonymous": false,
      "inputs": [
        {
          "indexed": true,
          "internalType": "address",
          "name": "owner",
          "type": "address"
        },
        {
          "indexed": true,
          "internalType": "address",
          "name": "approved",
          "type": "address"
        },
        {
          "indexed": true,
          "internalType": "uint256",
          "name": "tokenId",
          "type": "uint256"
        }
      ],
      "name": "Approval",
      "type": "event"
    },
    {
      "anonymous": false,
      "inputs": [
        {
          "indexed": true,
          "internalType": "address",
          "name": "owner",
          "type": "address"
        },
        {
          "indexed": true,
          "internalType": "address",
          "name": "operator",
          "type": "address"
        },
        {
          "indexed": false,
          "internalType": "bool",
          "name": "approved",
          "type": "bool"
        }
      ],
      "name": "ApprovalForAll",
      "type": "event"
    },
    {
      "anonymous": false,
      "inputs": [
        {
          "indexed": false,
          "internalType": "uint256",
          "name": "_fromTokenId",
          "type": "uint256"
        },
        {
          "indexed": false,
          "internalType": "uint256",
          "name": "_toTokenId",
          "type": "uint256"
        }
      ],
      "name": "BatchMetadataUpdate",
      "type": "event"
    },
    {
      "anonymous": false,
      "inputs": [
        {
          "indexed": false,
          "internalType": "uint256",
          "name": "_tokenId",
          "type": "uint256"
        }
      ],
      "name": "MetadataUpdate",
      "type": "event"
    },
    {
      "anonymous": false,
      "inputs": [
        {
          "indexed": true,
          "internalType": "address",
          "name": "previousOwner",
          "type": "address"
        },
        {
          "indexed": true,
          "internalType": "address",
          "name": "newOwner",
          "type": "address"
        }
      ],
      "name": "OwnershipTransferred",
      "type": "event"
    },
    {
      "anonymous": false,
      "inputs": [
        {
          "indexed": true,
          "internalType": "address",
          "name": "from",
          "type": "address"
        },
        {
          "indexed": true,
          "internalType": "address",
          "name": "to",
          "type": "address"
        },
        {
          "indexed": true,
          "internalType": "uint256",
          "name": "tokenId",
          "type": "uint256"
        }
      ],
      "name": "Transfer",
      "type": "event"
    },
    {
      "inputs": [
        {
          "internalType": "address",
          "name": "to",
          "type": "address"
        },
        {
          "internalType": "uint256",
          "name": "tokenId",
          "type": "uint256"
        }
      ],
      "name": "approve",
      "outputs": [],
      "stateMutability": "nonpayable",
      "type": "function"
    },
    {
      "inputs": [
        {
          "internalType": "address",
          "name": "owner",
          "type": "address"
        }
      ],
      "name": "balanceOf",
      "outputs": [
        {
          "internalType": "uint256",
          "name": "",
          "type": "uint256"
        }
      ],
      "stateMutability": "view",
      "type": "function"
    },
    {
      "inputs": [
        {
          "internalType": "uint256",
          "name": "tokenId",
          "type": "uint256"
        }
      ],
      "name": "getApproved",
      "outputs": [
        {
          "internalType": "address",
          "name": "",
          "type": "address"
        }
      ],
      "stateMutability": "view",
      "type": "function"
    },
    {
      "inputs": [
        {
          "internalType": "uint256",
          "name": "index",
          "type": "uint256"
        }
      ],
      "name": "getGiftCardByIndex",
      "outputs": [
        {
          "components": [
            {
              "internalType": "uint256",
              "name": "tokenId",
              "type": "uint256"
            },
            {
              "internalType": "uint256",
              "name": "amount",
              "type": "uint256"
            },
            {
              "internalType": "string",
              "name": "message",
              "type": "string"
            },
            {
              "internalType": "string",
              "name": "signedBy",
              "type": "string"
            },
            {
              "internalType": "address",
              "name": "mintedBy",
              "type": "address"
            },
            {
              "internalType": "bool",
              "name": "isUnwrapped",
              "type": "bool"
            },
            {
              "internalType": "bool",
              "name": "isBurnt",
              "type": "bool"
            },
            {
              "internalType": "uint256",
              "name": "timestamp",
              "type": "uint256"
            },
            {
              "internalType": "bool",
              "name": "isInitialized",
              "type": "bool"
            }
          ],
          "internalType": "struct MGC.GiftCardStruct",
          "name": "",
          "type": "tuple"
        }
      ],
      "stateMutability": "view",
      "type": "function"
    },
    {
      "inputs": [
        {
          "internalType": "uint256",
          "name": "index",
          "type": "uint256"
        }
      ],
      "name": "getSentGiftCardByIndex",
      "outputs": [
        {
          "components": [
            {
              "internalType": "uint256",
              "name": "tokenId",
              "type": "uint256"
            },
            {
              "internalType": "uint256",
              "name": "amount",
              "type": "uint256"
            },
            {
              "internalType": "string",
              "name": "message",
              "type": "string"
            },
            {
              "internalType": "string",
              "name": "signedBy",
              "type": "string"
            },
            {
              "internalType": "address",
              "name": "mintedBy",
              "type": "address"
            },
            {
              "internalType": "bool",
              "name": "isUnwrapped",
              "type": "bool"
            },
            {
              "internalType": "bool",
              "name": "isBurnt",
              "type": "bool"
            },
            {
              "internalType": "uint256",
              "name": "timestamp",
              "type": "uint256"
            },
            {
              "internalType": "bool",
              "name": "isInitialized",
              "type": "bool"
            }
          ],
          "internalType": "struct MGC.GiftCardStruct",
          "name": "",
          "type": "tuple"
        }
      ],
      "stateMutability": "view",
      "type": "function"
    },
    {
      "inputs": [],
      "name": "getTotalFees",
      "outputs": [
        {
          "internalType": "uint256",
          "name": "",
          "type": "uint256"
        }
      ],
      "stateMutability": "view",
      "type": "function"
    },
    {
      "inputs": [],
      "name": "getTotalFeesWithdrawn",
      "outputs": [
        {
          "internalType": "uint256",
          "name": "",
          "type": "uint256"
        }
      ],
      "stateMutability": "view",
      "type": "function"
    },
    {
      "inputs": [
        {
          "internalType": "address",
          "name": "owner",
          "type": "address"
        },
        {
          "internalType": "address",
          "name": "operator",
          "type": "address"
        }
      ],
      "name": "isApprovedForAll",
      "outputs": [
        {
          "internalType": "bool",
          "name": "",
          "type": "bool"
        }
      ],
      "stateMutability": "view",
      "type": "function"
    },
    {
      "inputs": [],
      "name": "lengthOfSentGiftCards",
      "outputs": [
        {
          "internalType": "uint256",
          "name": "",
          "type": "uint256"
        }
      ],
      "stateMutability": "view",
      "type": "function"
    },
    {
      "inputs": [],
      "name": "name",
      "outputs": [
        {
          "internalType": "string",
          "name": "",
          "type": "string"
        }
      ],
      "stateMutability": "view",
      "type": "function"
    },
    {
      "inputs": [],
      "name": "owner",
      "outputs": [
        {
          "internalType": "address",
          "name": "",
          "type": "address"
        }
      ],
      "stateMutability": "view",
      "type": "function"
    },
    {
      "inputs": [
        {
          "internalType": "uint256",
          "name": "tokenId",
          "type": "uint256"
        }
      ],
      "name": "ownerOf",
      "outputs": [
        {
          "internalType": "address",
          "name": "",
          "type": "address"
        }
      ],
      "stateMutability": "view",
      "type": "function"
    },
    {
      "inputs": [],
      "name": "renounceOwnership",
      "outputs": [],
      "stateMutability": "nonpayable",
      "type": "function"
    },
    {
      "inputs": [
        {
          "internalType": "address",
          "name": "to",
          "type": "address"
        },
        {
          "internalType": "string",
          "name": "message",
          "type": "string"
        },
        {
          "internalType": "string",
          "name": "signedBy",
          "type": "string"
        },
        {
          "internalType": "string",
          "name": "uri",
          "type": "string"
        }
      ],
      "name": "safeMint",
      "outputs": [],
      "stateMutability": "payable",
      "type": "function"
    },
    {
      "inputs": [
        {
          "internalType": "address",
          "name": "from",
          "type": "address"
        },
        {
          "internalType": "address",
          "name": "to",
          "type": "address"
        },
        {
          "internalType": "uint256",
          "name": "tokenId",
          "type": "uint256"
        }
      ],
      "name": "safeTransferFrom",
      "outputs": [],
      "stateMutability": "nonpayable",
      "type": "function"
    },
    {
      "inputs": [
        {
          "internalType": "address",
          "name": "from",
          "type": "address"
        },
        {
          "internalType": "address",
          "name": "to",
          "type": "address"
        },
        {
          "internalType": "uint256",
          "name": "tokenId",
          "type": "uint256"
        },
        {
          "internalType": "bytes",
          "name": "data",
          "type": "bytes"
        }
      ],
      "name": "safeTransferFrom",
      "outputs": [],
      "stateMutability": "nonpayable",
      "type": "function"
    },
    {
      "inputs": [
        {
          "internalType": "address",
          "name": "operator",
          "type": "address"
        },
        {
          "internalType": "bool",
          "name": "approved",
          "type": "bool"
        }
      ],
      "name": "setApprovalForAll",
      "outputs": [],
      "stateMutability": "nonpayable",
      "type": "function"
    },
    {
      "inputs": [
        {
          "internalType": "bytes4",
          "name": "interfaceId",
          "type": "bytes4"
        }
      ],
      "name": "supportsInterface",
      "outputs": [
        {
          "internalType": "bool",
          "name": "",
          "type": "bool"
        }
      ],
      "stateMutability": "view",
      "type": "function"
    },
    {
      "inputs": [],
      "name": "symbol",
      "outputs": [
        {
          "internalType": "string",
          "name": "",
          "type": "string"
        }
      ],
      "stateMutability": "view",
      "type": "function"
    },
    {
      "inputs": [
        {
          "internalType": "uint256",
          "name": "index",
          "type": "uint256"
        }
      ],
      "name": "tokenByIndex",
      "outputs": [
        {
          "internalType": "uint256",
          "name": "",
          "type": "uint256"
        }
      ],
      "stateMutability": "view",
      "type": "function"
    },
    {
      "inputs": [
        {
          "internalType": "address",
          "name": "owner",
          "type": "address"
        },
        {
          "internalType": "uint256",
          "name": "index",
          "type": "uint256"
        }
      ],
      "name": "tokenOfOwnerByIndex",
      "outputs": [
        {
          "internalType": "uint256",
          "name": "",
          "type": "uint256"
        }
      ],
      "stateMutability": "view",
      "type": "function"
    },
    {
      "inputs": [
        {
          "internalType": "uint256",
          "name": "tokenId",
          "type": "uint256"
        }
      ],
      "name": "tokenURI",
      "outputs": [
        {
          "internalType": "string",
          "name": "",
          "type": "string"
        }
      ],
      "stateMutability": "view",
      "type": "function"
    },
    {
      "inputs": [],
      "name": "totalSupply",
      "outputs": [
        {
          "internalType": "uint256",
          "name": "",
          "type": "uint256"
        }
      ],
      "stateMutability": "view",
      "type": "function"
    },
    {
      "inputs": [
        {
          "internalType": "address",
          "name": "from",
          "type": "address"
        },
        {
          "internalType": "address",
          "name": "to",
          "type": "address"
        },
        {
          "internalType": "uint256",
          "name": "tokenId",
          "type": "uint256"
        }
      ],
      "name": "transferFrom",
      "outputs": [],
      "stateMutability": "nonpayable",
      "type": "function"
    },
    {
      "inputs": [
        {
          "internalType": "address",
          "name": "newOwner",
          "type": "address"
        }
      ],
      "name": "transferOwnership",
      "outputs": [],
      "stateMutability": "nonpayable",
      "type": "function"
    },
    {
      "inputs": [
        {
          "internalType": "uint256",
          "name": "tokenId",
          "type": "uint256"
        }
      ],
      "name": "unwrapGiftCard",
      "outputs": [],
      "stateMutability": "nonpayable",
      "type": "function"
    },
    {
      "inputs": [],
      "name": "withdrawFees",
      "outputs": [],
      "stateMutability": "nonpayable",
      "type": "function"
    }
  ],
  "bytecode": "0x60806040523480156200001157600080fd5b506040516200471238038062004712833981810160405281019062000037919062000288565b806040518060400160405280601181526020017f4d696e69706179204769667420436172640000000000000000000000000000008152506040518060400160405280600381526020017f4d474300000000000000000000000000000000000000000000000000000000008152508160009081620000b5919062000534565b508060019081620000c7919062000534565b505050600073ffffffffffffffffffffffffffffffffffffffff168173ffffffffffffffffffffffffffffffffffffffff16036200013f5760006040517f1e4fbdf70000000000000000000000000000000000000000000000000000000081526004016200013691906200062c565b60405180910390fd5b62000150816200015860201b60201c565b505062000649565b6000600b60009054906101000a900473ffffffffffffffffffffffffffffffffffffffff16905081600b60006101000a81548173ffffffffffffffffffffffffffffffffffffffff021916908373ffffffffffffffffffffffffffffffffffffffff1602179055508173ffffffffffffffffffffffffffffffffffffffff168173ffffffffffffffffffffffffffffffffffffffff167f8be0079c531659141344cd1fd0a4f28419497f9722a3daafe3b4186f6b6457e060405160405180910390a35050565b600080fd5b600073ffffffffffffffffffffffffffffffffffffffff82169050919050565b6000620002508262000223565b9050919050565b620002628162000243565b81146200026e57600080fd5b50565b600081519050620002828162000257565b92915050565b600060208284031215620002a157620002a06200021e565b5b6000620002b18482850162000271565b91505092915050565b600081519050919050565b7f4e487b7100000000000000000000000000000000000000000000000000000000600052604160045260246000fd5b7f4e487b7100000000000000000000000000000000000000000000000000000000600052602260045260246000fd5b600060028204905060018216806200033c57607f821691505b602082108103620003525762000351620002f4565b5b50919050565b60008190508160005260206000209050919050565b60006020601f8301049050919050565b600082821b905092915050565b600060088302620003bc7fffffffffffffffffffffffffffffffffffffffffffffffffffffffffffffffff826200037d565b620003c886836200037d565b95508019841693508086168417925050509392505050565b6000819050919050565b6000819050919050565b6000620004156200040f6200040984620003e0565b620003ea565b620003e0565b9050919050565b6000819050919050565b6200043183620003f4565b6200044962000440826200041c565b8484546200038a565b825550505050565b600090565b6200046062000451565b6200046d81848462000426565b505050565b5b8181101562000495576200048960008262000456565b60018101905062000473565b5050565b601f821115620004e457620004ae8162000358565b620004b9846200036d565b81016020851015620004c9578190505b620004e1620004d8856200036d565b83018262000472565b50505b505050565b600082821c905092915050565b60006200050960001984600802620004e9565b1980831691505092915050565b6000620005248383620004f6565b9150826002028217905092915050565b6200053f82620002ba565b67ffffffffffffffff8111156200055b576200055a620002c5565b5b62000567825462000323565b6200057482828562000499565b600060209050601f831160018114620005ac576000841562000597578287015190505b620005a3858262000516565b86555062000613565b601f198416620005bc8662000358565b60005b82811015620005e657848901518255600182019150602085019450602081019050620005bf565b8683101562000606578489015162000602601f891682620004f6565b8355505b6001600288020188555050505b505050505050565b620006268162000243565b82525050565b60006020820190506200064360008301846200061b565b92915050565b6140b980620006596000396000f3fe60806040526004361061019c5760003560e01c80636352211e116100ec578063a22cb4651161008a578063e985e9c511610064578063e985e9c5146105dd578063f2fde38b1461061a578063f582fcd914610643578063fdc87f2f1461066e5761019c565b8063a22cb4651461054e578063b88d4fde14610577578063c87b56dd146105a05761019c565b806379bf0e72116100c657806379bf0e72146104925780638da5cb5b146104cf57806395d89b41146104fa57806397f960fc146105255761019c565b80636352211e1461040157806370a082311461043e578063715018a61461047b5761019c565b80631de92f621161015957806342842e0e1161013357806342842e0e14610359578063476343ee146103825780634f6ccce714610399578063626e1ae7146103d65761019c565b80631de92f62146102b657806323b872dd146102f35780632f745c591461031c5761019c565b806301ffc9a7146101a157806303a80dfb146101de57806306fdde03146101fa578063081812fc14610225578063095ea7b31461026257806318160ddd1461028b575b600080fd5b3480156101ad57600080fd5b506101c860048036038101906101c39190612e22565b610699565b6040516101d59190612e6a565b60405180910390f35b6101f860048036038101906101f39190613029565b6106ab565b005b34801561020657600080fd5b5061020f610956565b60405161021c9190613163565b60405180910390f35b34801561023157600080fd5b5061024c600480360381019061024791906131bb565b6109e8565b60405161025991906131f7565b60405180910390f35b34801561026e57600080fd5b5061028960048036038101906102849190613212565b610a04565b005b34801561029757600080fd5b506102a0610a1a565b6040516102ad9190613261565b60405180910390f35b3480156102c257600080fd5b506102dd60048036038101906102d891906131bb565b610a27565b6040516102ea91906133bf565b60405180910390f35b3480156102ff57600080fd5b5061031a600480360381019061031591906133e1565b610a4e565b005b34801561032857600080fd5b50610343600480360381019061033e9190613212565b610b50565b6040516103509190613261565b60405180910390f35b34801561036557600080fd5b50610380600480360381019061037b91906133e1565b610bf9565b005b34801561038e57600080fd5b50610397610c19565b005b3480156103a557600080fd5b506103c060048036038101906103bb91906131bb565b610d31565b6040516103cd9190613261565b60405180910390f35b3480156103e257600080fd5b506103eb610da7565b6040516103f89190613261565b60405180910390f35b34801561040d57600080fd5b50610428600480360381019061042391906131bb565b610db9565b60405161043591906131f7565b60405180910390f35b34801561044a57600080fd5b5061046560048036038101906104609190613434565b610dcb565b6040516104729190613261565b60405180910390f35b34801561048757600080fd5b50610490610e85565b005b34801561049e57600080fd5b506104b960048036038101906104b491906131bb565b610e99565b6040516104c691906133bf565b60405180910390f35b3480156104db57600080fd5b506104e4610fa7565b6040516104f191906131f7565b60405180910390f35b34801561050657600080fd5b5061050f610fd1565b60405161051c9190613163565b60405180910390f35b34801561053157600080fd5b5061054c600480360381019061054791906131bb565b611063565b005b34801561055a57600080fd5b506105756004803603810190610570919061348d565b6110f4565b005b34801561058357600080fd5b5061059e6004803603810190610599919061356e565b61110a565b005b3480156105ac57600080fd5b506105c760048036038101906105c291906131bb565b611127565b6040516105d49190613163565b60405180910390f35b3480156105e957600080fd5b5061060460048036038101906105ff91906135f1565b611139565b6040516106119190612e6a565b60405180910390f35b34801561062657600080fd5b50610641600480360381019061063c9190613434565b6111cd565b005b34801561064f57600080fd5b50610658611253565b6040516106659190613261565b60405180910390f35b34801561067a57600080fd5b50610683611265565b6040516106909190613261565b60405180910390f35b60006106a4826112af565b9050919050565b600067016345785d8a0000905060006106c382611310565b9050600081836106d39190613660565b905080341015610718576040517f08c379a000000000000000000000000000000000000000000000000000000000815260040161070f90613706565b60405180910390fd5b600061072334611310565b905080600f60008282546107379190613660565b925050819055506000813461074c9190613726565b90506000600c60008154809291906107639061375a565b9190505590506107738a82611351565b61077d818861136f565b6040518061012001604052808281526020018381526020018a81526020018981526020013373ffffffffffffffffffffffffffffffffffffffff16815260200160001515815260200160001515815260200142815260200160011515815250600d60008381526020019081526020016000206000820151816000015560208201518160010155604082015181600201908161081891906139ae565b50606082015181600301908161082e91906139ae565b5060808201518160040160006101000a81548173ffffffffffffffffffffffffffffffffffffffff021916908373ffffffffffffffffffffffffffffffffffffffff16021790555060a08201518160040160146101000a81548160ff02191690831515021790555060c08201518160040160156101000a81548160ff02191690831515021790555060e082015181600501556101008201518160060160006101000a81548160ff021916908315150217905550905050600e60003373ffffffffffffffffffffffffffffffffffffffff1673ffffffffffffffffffffffffffffffffffffffff16815260200190815260200160002081908060018154018082558091505060019003906000526020600020016000909190919091505550505050505050505050565b606060008054610965906137d1565b80601f0160208091040260200160405190810160405280929190818152602001828054610991906137d1565b80156109de5780601f106109b3576101008083540402835291602001916109de565b820191906000526020600020905b8154815290600101906020018083116109c157829003601f168201915b5050505050905090565b60006109f3826113cb565b506109fd82611453565b9050919050565b610a168282610a11611490565b611498565b5050565b6000600880549050905090565b610a2f612d4e565b6000610a3b3384610b50565b9050610a46816114aa565b915050919050565b600073ffffffffffffffffffffffffffffffffffffffff168273ffffffffffffffffffffffffffffffffffffffff1603610ac05760006040517f64a0ae92000000000000000000000000000000000000000000000000000000008152600401610ab791906131f7565b60405180910390fd5b6000610ad48383610acf611490565b611713565b90508373ffffffffffffffffffffffffffffffffffffffff168173ffffffffffffffffffffffffffffffffffffffff1614610b4a578382826040517f64283d7b000000000000000000000000000000000000000000000000000000008152600401610b4193929190613a80565b60405180910390fd5b50505050565b6000610b5b83610dcb565b8210610ba05782826040517fa57d13dc000000000000000000000000000000000000000000000000000000008152600401610b97929190613ab7565b60405180910390fd5b600660008473ffffffffffffffffffffffffffffffffffffffff1673ffffffffffffffffffffffffffffffffffffffff168152602001908152602001600020600083815260200190815260200160002054905092915050565b610c148383836040518060200160405280600081525061110a565b505050565b610c21611729565b6000601054600f54610c339190613726565b905060008111610c78576040517f08c379a0000000000000000000000000000000000000000000000000000000008152600401610c6f90613b2c565b60405180910390fd5b600f5460108190555060003373ffffffffffffffffffffffffffffffffffffffff1682604051610ca790613b7d565b60006040518083038185875af1925050503d8060008114610ce4576040519150601f19603f3d011682016040523d82523d6000602084013e610ce9565b606091505b5050905080610d2d576040517f08c379a0000000000000000000000000000000000000000000000000000000008152600401610d2490613bde565b60405180910390fd5b5050565b6000610d3b610a1a565b8210610d81576000826040517fa57d13dc000000000000000000000000000000000000000000000000000000008152600401610d78929190613ab7565b60405180910390fd5b60088281548110610d9557610d94613bfe565b5b90600052602060002001549050919050565b6000610db1611729565b600f54905090565b6000610dc4826113cb565b9050919050565b60008073ffffffffffffffffffffffffffffffffffffffff168273ffffffffffffffffffffffffffffffffffffffff1603610e3e5760006040517f89c62b64000000000000000000000000000000000000000000000000000000008152600401610e3591906131f7565b60405180910390fd5b600360008373ffffffffffffffffffffffffffffffffffffffff1673ffffffffffffffffffffffffffffffffffffffff168152602001908152602001600020549050919050565b610e8d611729565b610e9760006117b0565b565b610ea1612d4e565b6000600e60003373ffffffffffffffffffffffffffffffffffffffff1673ffffffffffffffffffffffffffffffffffffffff168152602001908152602001600020805480602002602001604051908101604052809291908181526020018280548015610f2c57602002820191906000526020600020905b815481526020019060010190808311610f18575b5050505050905082815111610f76576040517f08c379a0000000000000000000000000000000000000000000000000000000008152600401610f6d90613c79565b60405180910390fd5b6000818481518110610f8b57610f8a613bfe565b5b60200260200101519050610f9e816114aa565b92505050919050565b6000600b60009054906101000a900473ffffffffffffffffffffffffffffffffffffffff16905090565b606060018054610fe0906137d1565b80601f016020809104026020016040519081016040528092919081815260200182805461100c906137d1565b80156110595780601f1061102e57610100808354040283529160200191611059565b820191906000526020600020905b81548152906001019060200180831161103c57829003601f168201915b5050505050905090565b3373ffffffffffffffffffffffffffffffffffffffff1661108382610db9565b73ffffffffffffffffffffffffffffffffffffffff16146110d9576040517f08c379a00000000000000000000000000000000000000000000000000000000081526004016110d090613ce5565b60405180910390fd5b60006110e4826114aa565b90506110f08133611876565b5050565b6111066110ff611490565b83836119d5565b5050565b611115848484610a4e565b61112184848484611b44565b50505050565b606061113282611cfb565b9050919050565b6000600560008473ffffffffffffffffffffffffffffffffffffffff1673ffffffffffffffffffffffffffffffffffffffff16815260200190815260200160002060008373ffffffffffffffffffffffffffffffffffffffff1673ffffffffffffffffffffffffffffffffffffffff16815260200190815260200160002060009054906101000a900460ff16905092915050565b6111d5611729565b600073ffffffffffffffffffffffffffffffffffffffff168173ffffffffffffffffffffffffffffffffffffffff16036112475760006040517f1e4fbdf700000000000000000000000000000000000000000000000000000000815260040161123e91906131f7565b60405180910390fd5b611250816117b0565b50565b600061125d611729565b601054905090565b6000600e60003373ffffffffffffffffffffffffffffffffffffffff1673ffffffffffffffffffffffffffffffffffffffff16815260200190815260200160002080549050905090565b6000634906490660e01b7bffffffffffffffffffffffffffffffffffffffffffffffffffffffff1916827bffffffffffffffffffffffffffffffffffffffffffffffffffffffff19161480611309575061130882611e0e565b5b9050919050565b60008060696005846113229190613d05565b61132c9190613d76565b90506000670de0b6b3a7640000905080821115611347578091505b8192505050919050565b61136b828260405180602001604052806000815250611e88565b5050565b80600a6000848152602001908152602001600020908161138f91906139ae565b507ff8e1a15aba9398e019f0b49df1a4fde98ee17ae345cb5f6b5e2c27f5033e8ce7826040516113bf9190613261565b60405180910390a15050565b6000806113d783611ea4565b9050600073ffffffffffffffffffffffffffffffffffffffff168173ffffffffffffffffffffffffffffffffffffffff160361144a57826040517f7e2732890000000000000000000000000000000000000000000000000000000081526004016114419190613261565b60405180910390fd5b80915050919050565b60006004600083815260200190815260200160002060009054906101000a900473ffffffffffffffffffffffffffffffffffffffff169050919050565b600033905090565b6114a58383836001611ee1565b505050565b6114b2612d4e565b6000600d60008481526020019081526020016000206040518061012001604052908160008201548152602001600182015481526020016002820180546114f7906137d1565b80601f0160208091040260200160405190810160405280929190818152602001828054611523906137d1565b80156115705780601f1061154557610100808354040283529160200191611570565b820191906000526020600020905b81548152906001019060200180831161155357829003601f168201915b50505050508152602001600382018054611589906137d1565b80601f01602080910402602001604051908101604052809291908181526020018280546115b5906137d1565b80156116025780601f106115d757610100808354040283529160200191611602565b820191906000526020600020905b8154815290600101906020018083116115e557829003601f168201915b505050505081526020016004820160009054906101000a900473ffffffffffffffffffffffffffffffffffffffff1673ffffffffffffffffffffffffffffffffffffffff1673ffffffffffffffffffffffffffffffffffffffff1681526020016004820160149054906101000a900460ff161515151581526020016004820160159054906101000a900460ff16151515158152602001600582015481526020016006820160009054906101000a900460ff16151515158152505090506001151581610100015115151461170a576040517f08c379a000000000000000000000000000000000000000000000000000000000815260040161170190613df3565b60405180910390fd5b80915050919050565b60006117208484846120a6565b90509392505050565b611731611490565b73ffffffffffffffffffffffffffffffffffffffff1661174f610fa7565b73ffffffffffffffffffffffffffffffffffffffff16146117ae57611772611490565b6040517f118cdaa70000000000000000000000000000000000000000000000000000000081526004016117a591906131f7565b60405180910390fd5b565b6000600b60009054906101000a900473ffffffffffffffffffffffffffffffffffffffff16905081600b60006101000a81548173ffffffffffffffffffffffffffffffffffffffff021916908373ffffffffffffffffffffffffffffffffffffffff1602179055508173ffffffffffffffffffffffffffffffffffffffff168173ffffffffffffffffffffffffffffffffffffffff167f8be0079c531659141344cd1fd0a4f28419497f9722a3daafe3b4186f6b6457e060405160405180910390a35050565b600082602001519050600015158360a001511515146118ca576040517f08c379a00000000000000000000000000000000000000000000000000000000081526004016118c190613e85565b60405180910390fd5b6001600d60008560000151815260200190815260200160002060040160146101000a81548160ff0219169083151502179055506000600d60008560000151815260200190815260200160002060010181905550600082905060008173ffffffffffffffffffffffffffffffffffffffff168360405161194890613b7d565b60006040518083038185875af1925050503d8060008114611985576040519150601f19603f3d011682016040523d82523d6000602084013e61198a565b606091505b50509050806119ce576040517f08c379a00000000000000000000000000000000000000000000000000000000081526004016119c590613ef1565b60405180910390fd5b5050505050565b600073ffffffffffffffffffffffffffffffffffffffff168273ffffffffffffffffffffffffffffffffffffffff1603611a4657816040517f5b08ba18000000000000000000000000000000000000000000000000000000008152600401611a3d91906131f7565b60405180910390fd5b80600560008573ffffffffffffffffffffffffffffffffffffffff1673ffffffffffffffffffffffffffffffffffffffff16815260200190815260200160002060008473ffffffffffffffffffffffffffffffffffffffff1673ffffffffffffffffffffffffffffffffffffffff16815260200190815260200160002060006101000a81548160ff0219169083151502179055508173ffffffffffffffffffffffffffffffffffffffff168373ffffffffffffffffffffffffffffffffffffffff167f17307eab39ab6107e8899845ad3d59bd9653f200f220920489ca2b5937696c3183604051611b379190612e6a565b60405180910390a3505050565b60008373ffffffffffffffffffffffffffffffffffffffff163b1115611cf5578273ffffffffffffffffffffffffffffffffffffffff1663150b7a02611b88611490565b8685856040518563ffffffff1660e01b8152600401611baa9493929190613f66565b6020604051808303816000875af1925050508015611be657506040513d601f19601f82011682018060405250810190611be39190613fc7565b60015b611c6a573d8060008114611c16576040519150601f19603f3d011682016040523d82523d6000602084013e611c1b565b606091505b506000815103611c6257836040517f64a0ae92000000000000000000000000000000000000000000000000000000008152600401611c5991906131f7565b60405180910390fd5b805181602001fd5b63150b7a0260e01b7bffffffffffffffffffffffffffffffffffffffffffffffffffffffff1916817bffffffffffffffffffffffffffffffffffffffffffffffffffffffff191614611cf357836040517f64a0ae92000000000000000000000000000000000000000000000000000000008152600401611cea91906131f7565b60405180910390fd5b505b50505050565b6060611d06826113cb565b506000600a60008481526020019081526020016000208054611d27906137d1565b80601f0160208091040260200160405190810160405280929190818152602001828054611d53906137d1565b8015611da05780601f10611d7557610100808354040283529160200191611da0565b820191906000526020600020905b815481529060010190602001808311611d8357829003601f168201915b505050505090506000611db16121c3565b90506000815103611dc6578192505050611e09565b600082511115611dfb578082604051602001611de3929190614030565b60405160208183030381529060405292505050611e09565b611e04846121da565b925050505b919050565b60007f780e9d63000000000000000000000000000000000000000000000000000000007bffffffffffffffffffffffffffffffffffffffffffffffffffffffff1916827bffffffffffffffffffffffffffffffffffffffffffffffffffffffff19161480611e815750611e8082612243565b5b9050919050565b611e928383612325565b611e9f6000848484611b44565b505050565b60006002600083815260200190815260200160002060009054906101000a900473ffffffffffffffffffffffffffffffffffffffff169050919050565b8080611f1a5750600073ffffffffffffffffffffffffffffffffffffffff168273ffffffffffffffffffffffffffffffffffffffff1614155b1561204e576000611f2a846113cb565b9050600073ffffffffffffffffffffffffffffffffffffffff168373ffffffffffffffffffffffffffffffffffffffff1614158015611f9557508273ffffffffffffffffffffffffffffffffffffffff168173ffffffffffffffffffffffffffffffffffffffff1614155b8015611fa85750611fa68184611139565b155b15611fea57826040517fa9fbf51f000000000000000000000000000000000000000000000000000000008152600401611fe191906131f7565b60405180910390fd5b811561204c57838573ffffffffffffffffffffffffffffffffffffffff168273ffffffffffffffffffffffffffffffffffffffff167f8c5be1e5ebec7d5bd14f71427d1e84f3dd0314c0f7b2291e5b200ac8c7c3b92560405160405180910390a45b505b836004600085815260200190815260200160002060006101000a81548173ffffffffffffffffffffffffffffffffffffffff021916908373ffffffffffffffffffffffffffffffffffffffff16021790555050505050565b6000806120b485858561241e565b9050600073ffffffffffffffffffffffffffffffffffffffff168173ffffffffffffffffffffffffffffffffffffffff16036120f8576120f384612638565b612137565b8473ffffffffffffffffffffffffffffffffffffffff168173ffffffffffffffffffffffffffffffffffffffff1614612136576121358185612681565b5b5b600073ffffffffffffffffffffffffffffffffffffffff168573ffffffffffffffffffffffffffffffffffffffff160361217957612174846127e2565b6121b8565b8473ffffffffffffffffffffffffffffffffffffffff168173ffffffffffffffffffffffffffffffffffffffff16146121b7576121b685856128b3565b5b5b809150509392505050565b606060405180602001604052806000815250905090565b60606121e5826113cb565b5060006121f06121c3565b90506000815111612210576040518060200160405280600081525061223b565b8061221a8461293e565b60405160200161222b929190614030565b6040516020818303038152906040525b915050919050565b60007f80ac58cd000000000000000000000000000000000000000000000000000000007bffffffffffffffffffffffffffffffffffffffffffffffffffffffff1916827bffffffffffffffffffffffffffffffffffffffffffffffffffffffff1916148061230e57507f5b5e139f000000000000000000000000000000000000000000000000000000007bffffffffffffffffffffffffffffffffffffffffffffffffffffffff1916827bffffffffffffffffffffffffffffffffffffffffffffffffffffffff1916145b8061231e575061231d82612a0c565b5b9050919050565b600073ffffffffffffffffffffffffffffffffffffffff168273ffffffffffffffffffffffffffffffffffffffff16036123975760006040517f64a0ae9200000000000000000000000000000000000000000000000000000000815260040161238e91906131f7565b60405180910390fd5b60006123a583836000611713565b9050600073ffffffffffffffffffffffffffffffffffffffff168173ffffffffffffffffffffffffffffffffffffffff16146124195760006040517f73c6ac6e00000000000000000000000000000000000000000000000000000000815260040161241091906131f7565b60405180910390fd5b505050565b60008061242a84611ea4565b9050600073ffffffffffffffffffffffffffffffffffffffff168373ffffffffffffffffffffffffffffffffffffffff161461246c5761246b818486612a76565b5b600073ffffffffffffffffffffffffffffffffffffffff168173ffffffffffffffffffffffffffffffffffffffff16146124fd576124ae600085600080611ee1565b6001600360008373ffffffffffffffffffffffffffffffffffffffff1673ffffffffffffffffffffffffffffffffffffffff168152602001908152602001600020600082825403925050819055505b600073ffffffffffffffffffffffffffffffffffffffff168573ffffffffffffffffffffffffffffffffffffffff1614612580576001600360008773ffffffffffffffffffffffffffffffffffffffff1673ffffffffffffffffffffffffffffffffffffffff168152602001908152602001600020600082825401925050819055505b846002600086815260200190815260200160002060006101000a81548173ffffffffffffffffffffffffffffffffffffffff021916908373ffffffffffffffffffffffffffffffffffffffff160217905550838573ffffffffffffffffffffffffffffffffffffffff168273ffffffffffffffffffffffffffffffffffffffff167fddf252ad1be2c89b69c2b068fc378daa952ba7f163c4a11628f55a4df523b3ef60405160405180910390a4809150509392505050565b6008805490506009600083815260200190815260200160002081905550600881908060018154018082558091505060019003906000526020600020016000909190919091505550565b600061268c83610dcb565b9050600060076000848152602001908152602001600020549050818114612771576000600660008673ffffffffffffffffffffffffffffffffffffffff1673ffffffffffffffffffffffffffffffffffffffff168152602001908152602001600020600084815260200190815260200160002054905080600660008773ffffffffffffffffffffffffffffffffffffffff1673ffffffffffffffffffffffffffffffffffffffff168152602001908152602001600020600084815260200190815260200160002081905550816007600083815260200190815260200160002081905550505b6007600084815260200190815260200160002060009055600660008573ffffffffffffffffffffffffffffffffffffffff1673ffffffffffffffffffffffffffffffffffffffff16815260200190815260200160002060008381526020019081526020016000206000905550505050565b600060016008805490506127f69190613726565b905060006009600084815260200190815260200160002054905060006008838154811061282657612825613bfe565b5b90600052602060002001549050806008838154811061284857612847613bfe565b5b90600052602060002001819055508160096000838152602001908152602001600020819055506009600085815260200190815260200160002060009055600880548061289757612896614054565b5b6001900381819060005260206000200160009055905550505050565b600060016128c084610dcb565b6128ca9190613726565b905081600660008573ffffffffffffffffffffffffffffffffffffffff1673ffffffffffffffffffffffffffffffffffffffff168152602001908152602001600020600083815260200190815260200160002081905550806007600084815260200190815260200160002081905550505050565b60606000600161294d84612b3a565b01905060008167ffffffffffffffff81111561296c5761296b612efe565b5b6040519080825280601f01601f19166020018201604052801561299e5781602001600182028036833780820191505090505b509050600082602001820190505b600115612a01578080600190039150507f3031323334353637383961626364656600000000000000000000000000000000600a86061a8153600a85816129f5576129f4613d47565b5b049450600085036129ac575b819350505050919050565b60007f01ffc9a7000000000000000000000000000000000000000000000000000000007bffffffffffffffffffffffffffffffffffffffffffffffffffffffff1916827bffffffffffffffffffffffffffffffffffffffffffffffffffffffff1916149050919050565b612a81838383612c8d565b612b3557600073ffffffffffffffffffffffffffffffffffffffff168373ffffffffffffffffffffffffffffffffffffffff1603612af657806040517f7e273289000000000000000000000000000000000000000000000000000000008152600401612aed9190613261565b60405180910390fd5b81816040517f177e802f000000000000000000000000000000000000000000000000000000008152600401612b2c929190613ab7565b60405180910390fd5b505050565b600080600090507a184f03e93ff9f4daa797ed6e38ed64bf6a1f0100000000000000008310612b98577a184f03e93ff9f4daa797ed6e38ed64bf6a1f0100000000000000008381612b8e57612b8d613d47565b5b0492506040810190505b6d04ee2d6d415b85acef81000000008310612bd5576d04ee2d6d415b85acef81000000008381612bcb57612bca613d47565b5b0492506020810190505b662386f26fc100008310612c0457662386f26fc100008381612bfa57612bf9613d47565b5b0492506010810190505b6305f5e1008310612c2d576305f5e1008381612c2357612c22613d47565b5b0492506008810190505b6127108310612c52576127108381612c4857612c47613d47565b5b0492506004810190505b60648310612c755760648381612c6b57612c6a613d47565b5b0492506002810190505b600a8310612c84576001810190505b80915050919050565b60008073ffffffffffffffffffffffffffffffffffffffff168373ffffffffffffffffffffffffffffffffffffffff1614158015612d4557508273ffffffffffffffffffffffffffffffffffffffff168473ffffffffffffffffffffffffffffffffffffffff161480612d065750612d058484611139565b5b80612d4457508273ffffffffffffffffffffffffffffffffffffffff16612d2c83611453565b73ffffffffffffffffffffffffffffffffffffffff16145b5b90509392505050565b60405180610120016040528060008152602001600081526020016060815260200160608152602001600073ffffffffffffffffffffffffffffffffffffffff168152602001600015158152602001600015158152602001600081526020016000151581525090565b6000604051905090565b600080fd5b600080fd5b60007fffffffff0000000000000000000000000000000000000000000000000000000082169050919050565b612dff81612dca565b8114612e0a57600080fd5b50565b600081359050612e1c81612df6565b92915050565b600060208284031215612e3857612e37612dc0565b5b6000612e4684828501612e0d565b91505092915050565b60008115159050919050565b612e6481612e4f565b82525050565b6000602082019050612e7f6000830184612e5b565b92915050565b600073ffffffffffffffffffffffffffffffffffffffff82169050919050565b6000612eb082612e85565b9050919050565b612ec081612ea5565b8114612ecb57600080fd5b50565b600081359050612edd81612eb7565b92915050565b600080fd5b600080fd5b6000601f19601f8301169050919050565b7f4e487b7100000000000000000000000000000000000000000000000000000000600052604160045260246000fd5b612f3682612eed565b810181811067ffffffffffffffff82111715612f5557612f54612efe565b5b80604052505050565b6000612f68612db6565b9050612f748282612f2d565b919050565b600067ffffffffffffffff821115612f9457612f93612efe565b5b612f9d82612eed565b9050602081019050919050565b82818337600083830152505050565b6000612fcc612fc784612f79565b612f5e565b905082815260208101848484011115612fe857612fe7612ee8565b5b612ff3848285612faa565b509392505050565b600082601f8301126130105761300f612ee3565b5b8135613020848260208601612fb9565b91505092915050565b6000806000806080858703121561304357613042612dc0565b5b600061305187828801612ece565b945050602085013567ffffffffffffffff81111561307257613071612dc5565b5b61307e87828801612ffb565b935050604085013567ffffffffffffffff81111561309f5761309e612dc5565b5b6130ab87828801612ffb565b925050606085013567ffffffffffffffff8111156130cc576130cb612dc5565b5b6130d887828801612ffb565b91505092959194509250565b600081519050919050565b600082825260208201905092915050565b60005b8381101561311e578082015181840152602081019050613103565b60008484015250505050565b6000613135826130e4565b61313f81856130ef565b935061314f818560208601613100565b61315881612eed565b840191505092915050565b6000602082019050818103600083015261317d818461312a565b905092915050565b6000819050919050565b61319881613185565b81146131a357600080fd5b50565b6000813590506131b58161318f565b92915050565b6000602082840312156131d1576131d0612dc0565b5b60006131df848285016131a6565b91505092915050565b6131f181612ea5565b82525050565b600060208201905061320c60008301846131e8565b92915050565b6000806040838503121561322957613228612dc0565b5b600061323785828601612ece565b9250506020613248858286016131a6565b9150509250929050565b61325b81613185565b82525050565b60006020820190506132766000830184613252565b92915050565b61328581613185565b82525050565b600082825260208201905092915050565b60006132a7826130e4565b6132b1818561328b565b93506132c1818560208601613100565b6132ca81612eed565b840191505092915050565b6132de81612ea5565b82525050565b6132ed81612e4f565b82525050565b60006101208301600083015161330c600086018261327c565b50602083015161331f602086018261327c565b5060408301518482036040860152613337828261329c565b91505060608301518482036060860152613351828261329c565b915050608083015161336660808601826132d5565b5060a083015161337960a08601826132e4565b5060c083015161338c60c08601826132e4565b5060e083015161339f60e086018261327c565b506101008301516133b46101008601826132e4565b508091505092915050565b600060208201905081810360008301526133d981846132f3565b905092915050565b6000806000606084860312156133fa576133f9612dc0565b5b600061340886828701612ece565b935050602061341986828701612ece565b925050604061342a868287016131a6565b9150509250925092565b60006020828403121561344a57613449612dc0565b5b600061345884828501612ece565b91505092915050565b61346a81612e4f565b811461347557600080fd5b50565b60008135905061348781613461565b92915050565b600080604083850312156134a4576134a3612dc0565b5b60006134b285828601612ece565b92505060206134c385828601613478565b9150509250929050565b600067ffffffffffffffff8211156134e8576134e7612efe565b5b6134f182612eed565b9050602081019050919050565b600061351161350c846134cd565b612f5e565b90508281526020810184848401111561352d5761352c612ee8565b5b613538848285612faa565b509392505050565b600082601f83011261355557613554612ee3565b5b81356135658482602086016134fe565b91505092915050565b6000806000806080858703121561358857613587612dc0565b5b600061359687828801612ece565b94505060206135a787828801612ece565b93505060406135b8878288016131a6565b925050606085013567ffffffffffffffff8111156135d9576135d8612dc5565b5b6135e587828801613540565b91505092959194509250565b6000806040838503121561360857613607612dc0565b5b600061361685828601612ece565b925050602061362785828601612ece565b9150509250929050565b7f4e487b7100000000000000000000000000000000000000000000000000000000600052601160045260246000fd5b600061366b82613185565b915061367683613185565b925082820190508082111561368e5761368d613631565b5b92915050565b7f4769667420636172642076616c7565206d75737420626520677265617465722060008201527f7468616e206f7220657175616c20746f20302e312043454c4f00000000000000602082015250565b60006136f06039836130ef565b91506136fb82613694565b604082019050919050565b6000602082019050818103600083015261371f816136e3565b9050919050565b600061373182613185565b915061373c83613185565b925082820390508181111561375457613753613631565b5b92915050565b600061376582613185565b91507fffffffffffffffffffffffffffffffffffffffffffffffffffffffffffffffff820361379757613796613631565b5b600182019050919050565b7f4e487b7100000000000000000000000000000000000000000000000000000000600052602260045260246000fd5b600060028204905060018216806137e957607f821691505b6020821081036137fc576137fb6137a2565b5b50919050565b60008190508160005260206000209050919050565b60006020601f8301049050919050565b600082821b905092915050565b6000600883026138647fffffffffffffffffffffffffffffffffffffffffffffffffffffffffffffffff82613827565b61386e8683613827565b95508019841693508086168417925050509392505050565b6000819050919050565b60006138ab6138a66138a184613185565b613886565b613185565b9050919050565b6000819050919050565b6138c583613890565b6138d96138d1826138b2565b848454613834565b825550505050565b600090565b6138ee6138e1565b6138f98184846138bc565b505050565b5b8181101561391d576139126000826138e6565b6001810190506138ff565b5050565b601f8211156139625761393381613802565b61393c84613817565b8101602085101561394b578190505b61395f61395785613817565b8301826138fe565b50505b505050565b600082821c905092915050565b600061398560001984600802613967565b1980831691505092915050565b600061399e8383613974565b9150826002028217905092915050565b6139b7826130e4565b67ffffffffffffffff8111156139d0576139cf612efe565b5b6139da82546137d1565b6139e5828285613921565b600060209050601f831160018114613a185760008415613a06578287015190505b613a108582613992565b865550613a78565b601f198416613a2686613802565b60005b82811015613a4e57848901518255600182019150602085019450602081019050613a29565b86831015613a6b5784890151613a67601f891682613974565b8355505b6001600288020188555050505b505050505050565b6000606082019050613a9560008301866131e8565b613aa26020830185613252565b613aaf60408301846131e8565b949350505050565b6000604082019050613acc60008301856131e8565b613ad96020830184613252565b9392505050565b7f4e6f206665657320746f20776974686472617720796574000000000000000000600082015250565b6000613b166017836130ef565b9150613b2182613ae0565b602082019050919050565b60006020820190508181036000830152613b4581613b09565b9050919050565b600081905092915050565b50565b6000613b67600083613b4c565b9150613b7282613b57565b600082019050919050565b6000613b8882613b5a565b9150819050919050565b7f4661696c656420746f2077697468647261772066656573000000000000000000600082015250565b6000613bc86017836130ef565b9150613bd382613b92565b602082019050919050565b60006020820190508181036000830152613bf781613bbb565b9050919050565b7f4e487b7100000000000000000000000000000000000000000000000000000000600052603260045260246000fd5b7f476966744e4654436172643a20676966742063617264206e6f7420666f756e64600082015250565b6000613c636020836130ef565b9150613c6e82613c2d565b602082019050919050565b60006020820190508181036000830152613c9281613c56565b9050919050565b7f43616c6c6572206973206e6f74206f776e657200000000000000000000000000600082015250565b6000613ccf6013836130ef565b9150613cda82613c99565b602082019050919050565b60006020820190508181036000830152613cfe81613cc2565b9050919050565b6000613d1082613185565b9150613d1b83613185565b9250828202613d2981613185565b91508282048414831517613d4057613d3f613631565b5b5092915050565b7f4e487b7100000000000000000000000000000000000000000000000000000000600052601260045260246000fd5b6000613d8182613185565b9150613d8c83613185565b925082613d9c57613d9b613d47565b5b828204905092915050565b7f476966742063617264206e6f7420666f756e6400000000000000000000000000600082015250565b6000613ddd6013836130ef565b9150613de882613da7565b602082019050919050565b60006020820190508181036000830152613e0c81613dd0565b9050919050565b7f43616e6e6f7420756e7772617020616c726561647920756e777261707065642060008201527f6769667420636172640000000000000000000000000000000000000000000000602082015250565b6000613e6f6029836130ef565b9150613e7a82613e13565b604082019050919050565b60006020820190508181036000830152613e9e81613e62565b9050919050565b7f4661696c656420746f20756e7772617020676966742063617264000000000000600082015250565b6000613edb601a836130ef565b9150613ee682613ea5565b602082019050919050565b60006020820190508181036000830152613f0a81613ece565b9050919050565b600081519050919050565b600082825260208201905092915050565b6000613f3882613f11565b613f428185613f1c565b9350613f52818560208601613100565b613f5b81612eed565b840191505092915050565b6000608082019050613f7b60008301876131e8565b613f8860208301866131e8565b613f956040830185613252565b8181036060830152613fa78184613f2d565b905095945050505050565b600081519050613fc181612df6565b92915050565b600060208284031215613fdd57613fdc612dc0565b5b6000613feb84828501613fb2565b91505092915050565b600081905092915050565b600061400a826130e4565b6140148185613ff4565b9350614024818560208601613100565b80840191505092915050565b600061403c8285613fff565b91506140488284613fff565b91508190509392505050565b7f4e487b7100000000000000000000000000000000000000000000000000000000600052603160045260246000fdfea26469706673582212206cde92547a359565eaf8034c866c86c3049875fbefcfccf305d300e4b157a12b64736f6c63430008140033",
  "linkReferences": {},
  "deployedLinkReferences": {}
}