{
  "_format": "hh-sol-artifact-1",
  "contractName": "MGC",
  "sourceName": "contracts/MGC.sol",
  "abi": [
    {
      "inputs": [
        {
          "internalType": "address",
          "name": "initialOwner",
          "type": "address"
        },
        {
          "internalType": "address",
          "name": "_tokenAddress",
          "type": "address"
        }
      ],
      "stateMutability": "nonpayable",
      "type": "constructor"
    },
    {
      "inputs": [],
      "name": "ERC721EnumerableForbiddenBatchMint",
      "type": "error"
    },
    {
      "inputs": [
        {
          "internalType": "address",
          "name": "sender",
          "type": "address"
        },
        {
          "internalType": "uint256",
          "name": "tokenId",
          "type": "uint256"
        },
        {
          "internalType": "address",
          "name": "owner",
          "type": "address"
        }
      ],
      "name": "ERC721IncorrectOwner",
      "type": "error"
    },
    {
      "inputs": [
        {
          "internalType": "address",
          "name": "operator",
          "type": "address"
        },
        {
          "internalType": "uint256",
          "name": "tokenId",
          "type": "uint256"
        }
      ],
      "name": "ERC721InsufficientApproval",
      "type": "error"
    },
    {
      "inputs": [
        {
          "internalType": "address",
          "name": "approver",
          "type": "address"
        }
      ],
      "name": "ERC721InvalidApprover",
      "type": "error"
    },
    {
      "inputs": [
        {
          "internalType": "address",
          "name": "operator",
          "type": "address"
        }
      ],
      "name": "ERC721InvalidOperator",
      "type": "error"
    },
    {
      "inputs": [
        {
          "internalType": "address",
          "name": "owner",
          "type": "address"
        }
      ],
      "name": "ERC721InvalidOwner",
      "type": "error"
    },
    {
      "inputs": [
        {
          "internalType": "address",
          "name": "receiver",
          "type": "address"
        }
      ],
      "name": "ERC721InvalidReceiver",
      "type": "error"
    },
    {
      "inputs": [
        {
          "internalType": "address",
          "name": "sender",
          "type": "address"
        }
      ],
      "name": "ERC721InvalidSender",
      "type": "error"
    },
    {
      "inputs": [
        {
          "internalType": "uint256",
          "name": "tokenId",
          "type": "uint256"
        }
      ],
      "name": "ERC721NonexistentToken",
      "type": "error"
    },
    {
      "inputs": [
        {
          "internalType": "address",
          "name": "owner",
          "type": "address"
        },
        {
          "internalType": "uint256",
          "name": "index",
          "type": "uint256"
        }
      ],
      "name": "ERC721OutOfBoundsIndex",
      "type": "error"
    },
    {
      "inputs": [
        {
          "internalType": "address",
          "name": "owner",
          "type": "address"
        }
      ],
      "name": "OwnableInvalidOwner",
      "type": "error"
    },
    {
      "inputs": [
        {
          "internalType": "address",
          "name": "account",
          "type": "address"
        }
      ],
      "name": "OwnableUnauthorizedAccount",
      "type": "error"
    },
    {
      "anonymous": false,
      "inputs": [
        {
          "indexed": true,
          "internalType": "address",
          "name": "owner",
          "type": "address"
        },
        {
          "indexed": true,
          "internalType": "address",
          "name": "approved",
          "type": "address"
        },
        {
          "indexed": true,
          "internalType": "uint256",
          "name": "tokenId",
          "type": "uint256"
        }
      ],
      "name": "Approval",
      "type": "event"
    },
    {
      "anonymous": false,
      "inputs": [
        {
          "indexed": true,
          "internalType": "address",
          "name": "owner",
          "type": "address"
        },
        {
          "indexed": true,
          "internalType": "address",
          "name": "operator",
          "type": "address"
        },
        {
          "indexed": false,
          "internalType": "bool",
          "name": "approved",
          "type": "bool"
        }
      ],
      "name": "ApprovalForAll",
      "type": "event"
    },
    {
      "anonymous": false,
      "inputs": [
        {
          "indexed": false,
          "internalType": "uint256",
          "name": "_fromTokenId",
          "type": "uint256"
        },
        {
          "indexed": false,
          "internalType": "uint256",
          "name": "_toTokenId",
          "type": "uint256"
        }
      ],
      "name": "BatchMetadataUpdate",
      "type": "event"
    },
    {
      "anonymous": false,
      "inputs": [
        {
          "indexed": false,
          "internalType": "uint256",
          "name": "_tokenId",
          "type": "uint256"
        }
      ],
      "name": "MetadataUpdate",
      "type": "event"
    },
    {
      "anonymous": false,
      "inputs": [
        {
          "indexed": true,
          "internalType": "address",
          "name": "previousOwner",
          "type": "address"
        },
        {
          "indexed": true,
          "internalType": "address",
          "name": "newOwner",
          "type": "address"
        }
      ],
      "name": "OwnershipTransferred",
      "type": "event"
    },
    {
      "anonymous": false,
      "inputs": [
        {
          "indexed": true,
          "internalType": "address",
          "name": "from",
          "type": "address"
        },
        {
          "indexed": true,
          "internalType": "address",
          "name": "to",
          "type": "address"
        },
        {
          "indexed": true,
          "internalType": "uint256",
          "name": "tokenId",
          "type": "uint256"
        }
      ],
      "name": "Transfer",
      "type": "event"
    },
    {
      "inputs": [
        {
          "internalType": "address",
          "name": "to",
          "type": "address"
        },
        {
          "internalType": "uint256",
          "name": "tokenId",
          "type": "uint256"
        }
      ],
      "name": "approve",
      "outputs": [],
      "stateMutability": "nonpayable",
      "type": "function"
    },
    {
      "inputs": [
        {
          "internalType": "address",
          "name": "owner",
          "type": "address"
        }
      ],
      "name": "balanceOf",
      "outputs": [
        {
          "internalType": "uint256",
          "name": "",
          "type": "uint256"
        }
      ],
      "stateMutability": "view",
      "type": "function"
    },
    {
      "inputs": [
        {
          "internalType": "uint256",
          "name": "tokenId",
          "type": "uint256"
        }
      ],
      "name": "getApproved",
      "outputs": [
        {
          "internalType": "address",
          "name": "",
          "type": "address"
        }
      ],
      "stateMutability": "view",
      "type": "function"
    },
    {
      "inputs": [
        {
          "internalType": "uint256",
          "name": "index",
          "type": "uint256"
        }
      ],
      "name": "getGiftCardByIndex",
      "outputs": [
        {
          "components": [
            {
              "internalType": "uint256",
              "name": "tokenId",
              "type": "uint256"
            },
            {
              "internalType": "uint256",
              "name": "amount",
              "type": "uint256"
            },
            {
              "internalType": "string",
              "name": "message",
              "type": "string"
            },
            {
              "internalType": "string",
              "name": "signedBy",
              "type": "string"
            },
            {
              "internalType": "address",
              "name": "mintedBy",
              "type": "address"
            },
            {
              "internalType": "bool",
              "name": "isUnwrapped",
              "type": "bool"
            },
            {
              "internalType": "bool",
              "name": "isBurnt",
              "type": "bool"
            },
            {
              "internalType": "uint256",
              "name": "timestamp",
              "type": "uint256"
            },
            {
              "internalType": "bool",
              "name": "isInitialized",
              "type": "bool"
            }
          ],
          "internalType": "struct MGC.GiftCardStruct",
          "name": "",
          "type": "tuple"
        }
      ],
      "stateMutability": "view",
      "type": "function"
    },
    {
      "inputs": [
        {
          "internalType": "uint256",
          "name": "index",
          "type": "uint256"
        }
      ],
      "name": "getSentGiftCardByIndex",
      "outputs": [
        {
          "components": [
            {
              "internalType": "uint256",
              "name": "tokenId",
              "type": "uint256"
            },
            {
              "internalType": "uint256",
              "name": "amount",
              "type": "uint256"
            },
            {
              "internalType": "string",
              "name": "message",
              "type": "string"
            },
            {
              "internalType": "string",
              "name": "signedBy",
              "type": "string"
            },
            {
              "internalType": "address",
              "name": "mintedBy",
              "type": "address"
            },
            {
              "internalType": "bool",
              "name": "isUnwrapped",
              "type": "bool"
            },
            {
              "internalType": "bool",
              "name": "isBurnt",
              "type": "bool"
            },
            {
              "internalType": "uint256",
              "name": "timestamp",
              "type": "uint256"
            },
            {
              "internalType": "bool",
              "name": "isInitialized",
              "type": "bool"
            }
          ],
          "internalType": "struct MGC.GiftCardStruct",
          "name": "",
          "type": "tuple"
        }
      ],
      "stateMutability": "view",
      "type": "function"
    },
    {
      "inputs": [],
      "name": "getTotalFees",
      "outputs": [
        {
          "internalType": "uint256",
          "name": "",
          "type": "uint256"
        }
      ],
      "stateMutability": "view",
      "type": "function"
    },
    {
      "inputs": [],
      "name": "getTotalFeesWithdrawn",
      "outputs": [
        {
          "internalType": "uint256",
          "name": "",
          "type": "uint256"
        }
      ],
      "stateMutability": "view",
      "type": "function"
    },
    {
      "inputs": [
        {
          "internalType": "address",
          "name": "owner",
          "type": "address"
        },
        {
          "internalType": "address",
          "name": "operator",
          "type": "address"
        }
      ],
      "name": "isApprovedForAll",
      "outputs": [
        {
          "internalType": "bool",
          "name": "",
          "type": "bool"
        }
      ],
      "stateMutability": "view",
      "type": "function"
    },
    {
      "inputs": [],
      "name": "lengthOfSentGiftCards",
      "outputs": [
        {
          "internalType": "uint256",
          "name": "",
          "type": "uint256"
        }
      ],
      "stateMutability": "view",
      "type": "function"
    },
    {
      "inputs": [],
      "name": "name",
      "outputs": [
        {
          "internalType": "string",
          "name": "",
          "type": "string"
        }
      ],
      "stateMutability": "view",
      "type": "function"
    },
    {
      "inputs": [],
      "name": "owner",
      "outputs": [
        {
          "internalType": "address",
          "name": "",
          "type": "address"
        }
      ],
      "stateMutability": "view",
      "type": "function"
    },
    {
      "inputs": [
        {
          "internalType": "uint256",
          "name": "tokenId",
          "type": "uint256"
        }
      ],
      "name": "ownerOf",
      "outputs": [
        {
          "internalType": "address",
          "name": "",
          "type": "address"
        }
      ],
      "stateMutability": "view",
      "type": "function"
    },
    {
      "inputs": [],
      "name": "renounceOwnership",
      "outputs": [],
      "stateMutability": "nonpayable",
      "type": "function"
    },
    {
      "inputs": [
        {
          "internalType": "address",
          "name": "to",
          "type": "address"
        },
        {
          "internalType": "uint256",
          "name": "_amount",
          "type": "uint256"
        },
        {
          "internalType": "string",
          "name": "message",
          "type": "string"
        },
        {
          "internalType": "string",
          "name": "signedBy",
          "type": "string"
        },
        {
          "internalType": "string",
          "name": "uri",
          "type": "string"
        }
      ],
      "name": "safeMint",
      "outputs": [],
      "stateMutability": "payable",
      "type": "function"
    },
    {
      "inputs": [
        {
          "internalType": "address",
          "name": "from",
          "type": "address"
        },
        {
          "internalType": "address",
          "name": "to",
          "type": "address"
        },
        {
          "internalType": "uint256",
          "name": "tokenId",
          "type": "uint256"
        }
      ],
      "name": "safeTransferFrom",
      "outputs": [],
      "stateMutability": "nonpayable",
      "type": "function"
    },
    {
      "inputs": [
        {
          "internalType": "address",
          "name": "from",
          "type": "address"
        },
        {
          "internalType": "address",
          "name": "to",
          "type": "address"
        },
        {
          "internalType": "uint256",
          "name": "tokenId",
          "type": "uint256"
        },
        {
          "internalType": "bytes",
          "name": "data",
          "type": "bytes"
        }
      ],
      "name": "safeTransferFrom",
      "outputs": [],
      "stateMutability": "nonpayable",
      "type": "function"
    },
    {
      "inputs": [
        {
          "internalType": "address",
          "name": "operator",
          "type": "address"
        },
        {
          "internalType": "bool",
          "name": "approved",
          "type": "bool"
        }
      ],
      "name": "setApprovalForAll",
      "outputs": [],
      "stateMutability": "nonpayable",
      "type": "function"
    },
    {
      "inputs": [
        {
          "internalType": "bytes4",
          "name": "interfaceId",
          "type": "bytes4"
        }
      ],
      "name": "supportsInterface",
      "outputs": [
        {
          "internalType": "bool",
          "name": "",
          "type": "bool"
        }
      ],
      "stateMutability": "view",
      "type": "function"
    },
    {
      "inputs": [],
      "name": "symbol",
      "outputs": [
        {
          "internalType": "string",
          "name": "",
          "type": "string"
        }
      ],
      "stateMutability": "view",
      "type": "function"
    },
    {
      "inputs": [],
      "name": "token",
      "outputs": [
        {
          "internalType": "contract IERC20",
          "name": "",
          "type": "address"
        }
      ],
      "stateMutability": "view",
      "type": "function"
    },
    {
      "inputs": [
        {
          "internalType": "uint256",
          "name": "index",
          "type": "uint256"
        }
      ],
      "name": "tokenByIndex",
      "outputs": [
        {
          "internalType": "uint256",
          "name": "",
          "type": "uint256"
        }
      ],
      "stateMutability": "view",
      "type": "function"
    },
    {
      "inputs": [
        {
          "internalType": "address",
          "name": "owner",
          "type": "address"
        },
        {
          "internalType": "uint256",
          "name": "index",
          "type": "uint256"
        }
      ],
      "name": "tokenOfOwnerByIndex",
      "outputs": [
        {
          "internalType": "uint256",
          "name": "",
          "type": "uint256"
        }
      ],
      "stateMutability": "view",
      "type": "function"
    },
    {
      "inputs": [
        {
          "internalType": "uint256",
          "name": "tokenId",
          "type": "uint256"
        }
      ],
      "name": "tokenURI",
      "outputs": [
        {
          "internalType": "string",
          "name": "",
          "type": "string"
        }
      ],
      "stateMutability": "view",
      "type": "function"
    },
    {
      "inputs": [],
      "name": "totalSupply",
      "outputs": [
        {
          "internalType": "uint256",
          "name": "",
          "type": "uint256"
        }
      ],
      "stateMutability": "view",
      "type": "function"
    },
    {
      "inputs": [
        {
          "internalType": "address",
          "name": "from",
          "type": "address"
        },
        {
          "internalType": "address",
          "name": "to",
          "type": "address"
        },
        {
          "internalType": "uint256",
          "name": "tokenId",
          "type": "uint256"
        }
      ],
      "name": "transferFrom",
      "outputs": [],
      "stateMutability": "nonpayable",
      "type": "function"
    },
    {
      "inputs": [
        {
          "internalType": "address",
          "name": "newOwner",
          "type": "address"
        }
      ],
      "name": "transferOwnership",
      "outputs": [],
      "stateMutability": "nonpayable",
      "type": "function"
    },
    {
      "inputs": [
        {
          "internalType": "uint256",
          "name": "tokenId",
          "type": "uint256"
        }
      ],
      "name": "unwrapGiftCard",
      "outputs": [],
      "stateMutability": "nonpayable",
      "type": "function"
    },
    {
      "inputs": [],
      "name": "withdrawFees",
      "outputs": [],
      "stateMutability": "nonpayable",
      "type": "function"
    }
  ],
  "bytecode": "0x60806040523480156200001157600080fd5b5060405162004a8838038062004a888339818101604052810190620000379190620002ca565b816040518060400160405280601181526020017f4d696e69706179204769667420436172640000000000000000000000000000008152506040518060400160405280600381526020017f4d474300000000000000000000000000000000000000000000000000000000008152508160009081620000b591906200058b565b508060019081620000c791906200058b565b505050600073ffffffffffffffffffffffffffffffffffffffff168173ffffffffffffffffffffffffffffffffffffffff16036200013f5760006040517f1e4fbdf700000000000000000000000000000000000000000000000000000000815260040162000136919062000683565b60405180910390fd5b62000150816200019a60201b60201c565b5080600c60006101000a81548173ffffffffffffffffffffffffffffffffffffffff021916908373ffffffffffffffffffffffffffffffffffffffff1602179055505050620006a0565b6000600b60009054906101000a900473ffffffffffffffffffffffffffffffffffffffff16905081600b60006101000a81548173ffffffffffffffffffffffffffffffffffffffff021916908373ffffffffffffffffffffffffffffffffffffffff1602179055508173ffffffffffffffffffffffffffffffffffffffff168173ffffffffffffffffffffffffffffffffffffffff167f8be0079c531659141344cd1fd0a4f28419497f9722a3daafe3b4186f6b6457e060405160405180910390a35050565b600080fd5b600073ffffffffffffffffffffffffffffffffffffffff82169050919050565b6000620002928262000265565b9050919050565b620002a48162000285565b8114620002b057600080fd5b50565b600081519050620002c48162000299565b92915050565b60008060408385031215620002e457620002e362000260565b5b6000620002f485828601620002b3565b92505060206200030785828601620002b3565b9150509250929050565b600081519050919050565b7f4e487b7100000000000000000000000000000000000000000000000000000000600052604160045260246000fd5b7f4e487b7100000000000000000000000000000000000000000000000000000000600052602260045260246000fd5b600060028204905060018216806200039357607f821691505b602082108103620003a957620003a86200034b565b5b50919050565b60008190508160005260206000209050919050565b60006020601f8301049050919050565b600082821b905092915050565b600060088302620004137fffffffffffffffffffffffffffffffffffffffffffffffffffffffffffffffff82620003d4565b6200041f8683620003d4565b95508019841693508086168417925050509392505050565b6000819050919050565b6000819050919050565b60006200046c62000466620004608462000437565b62000441565b62000437565b9050919050565b6000819050919050565b62000488836200044b565b620004a0620004978262000473565b848454620003e1565b825550505050565b600090565b620004b7620004a8565b620004c48184846200047d565b505050565b5b81811015620004ec57620004e0600082620004ad565b600181019050620004ca565b5050565b601f8211156200053b576200050581620003af565b6200051084620003c4565b8101602085101562000520578190505b620005386200052f85620003c4565b830182620004c9565b50505b505050565b600082821c905092915050565b6000620005606000198460080262000540565b1980831691505092915050565b60006200057b83836200054d565b9150826002028217905092915050565b620005968262000311565b67ffffffffffffffff811115620005b257620005b16200031c565b5b620005be82546200037a565b620005cb828285620004f0565b600060209050601f831160018114620006035760008415620005ee578287015190505b620005fa85826200056d565b8655506200066a565b601f1984166200061386620003af565b60005b828110156200063d5784890151825560018201915060208501945060208101905062000616565b868310156200065d578489015162000659601f8916826200054d565b8355505b6001600288020188555050505b505050505050565b6200067d8162000285565b82525050565b60006020820190506200069a600083018462000672565b92915050565b6143d880620006b06000396000f3fe6080604052600436106101b75760003560e01c806370a08231116100ec578063b88d4fde1161008a578063f2fde38b11610064578063f2fde38b14610635578063f582fcd91461065e578063fc0c546a14610689578063fdc87f2f146106b4576101b7565b8063b88d4fde14610592578063c87b56dd146105bb578063e985e9c5146105f8576101b7565b80638da5cb5b116100c65780638da5cb5b146104ea57806395d89b411461051557806397f960fc14610540578063a22cb46514610569576101b7565b806370a0823114610459578063715018a61461049657806379bf0e72146104ad576101b7565b80632f745c5911610159578063476343ee11610133578063476343ee1461039d5780634f6ccce7146103b4578063626e1ae7146103f15780636352211e1461041c576101b7565b80632f745c591461031b5780633240a4911461035857806342842e0e14610374576101b7565b8063095ea7b311610195578063095ea7b31461026157806318160ddd1461028a5780631de92f62146102b557806323b872dd146102f2576101b7565b806301ffc9a7146101bc57806306fdde03146101f9578063081812fc14610224575b600080fd5b3480156101c857600080fd5b506101e360048036038101906101de9190612fd4565b6106df565b6040516101f0919061301c565b60405180910390f35b34801561020557600080fd5b5061020e6106f1565b60405161021b91906130c7565b60405180910390f35b34801561023057600080fd5b5061024b6004803603810190610246919061311f565b610783565b604051610258919061318d565b60405180910390f35b34801561026d57600080fd5b50610288600480360381019061028391906131d4565b61079f565b005b34801561029657600080fd5b5061029f6107b5565b6040516102ac9190613223565b60405180910390f35b3480156102c157600080fd5b506102dc60048036038101906102d7919061311f565b6107c2565b6040516102e99190613381565b60405180910390f35b3480156102fe57600080fd5b50610319600480360381019061031491906133a3565b6107e9565b005b34801561032757600080fd5b50610342600480360381019061033d91906131d4565b6108eb565b60405161034f9190613223565b60405180910390f35b610372600480360381019061036d919061352b565b610994565b005b34801561038057600080fd5b5061039b600480360381019061039691906133a3565b610d21565b005b3480156103a957600080fd5b506103b2610d41565b005b3480156103c057600080fd5b506103db60048036038101906103d6919061311f565b610e8b565b6040516103e89190613223565b60405180910390f35b3480156103fd57600080fd5b50610406610f01565b6040516104139190613223565b60405180910390f35b34801561042857600080fd5b50610443600480360381019061043e919061311f565b610f13565b604051610450919061318d565b60405180910390f35b34801561046557600080fd5b50610480600480360381019061047b91906135fa565b610f25565b60405161048d9190613223565b60405180910390f35b3480156104a257600080fd5b506104ab610fdf565b005b3480156104b957600080fd5b506104d460048036038101906104cf919061311f565b610ff3565b6040516104e19190613381565b60405180910390f35b3480156104f657600080fd5b506104ff611101565b60405161050c919061318d565b60405180910390f35b34801561052157600080fd5b5061052a61112b565b60405161053791906130c7565b60405180910390f35b34801561054c57600080fd5b506105676004803603810190610562919061311f565b6111bd565b005b34801561057557600080fd5b50610590600480360381019061058b9190613653565b61124e565b005b34801561059e57600080fd5b506105b960048036038101906105b49190613734565b611264565b005b3480156105c757600080fd5b506105e260048036038101906105dd919061311f565b611281565b6040516105ef91906130c7565b60405180910390f35b34801561060457600080fd5b5061061f600480360381019061061a91906137b7565b611293565b60405161062c919061301c565b60405180910390f35b34801561064157600080fd5b5061065c600480360381019061065791906135fa565b611327565b005b34801561066a57600080fd5b506106736113ad565b6040516106809190613223565b60405180910390f35b34801561069557600080fd5b5061069e6113bf565b6040516106ab9190613856565b60405180910390f35b3480156106c057600080fd5b506106c96113e5565b6040516106d69190613223565b60405180910390f35b60006106ea8261142f565b9050919050565b606060008054610700906138a0565b80601f016020809104026020016040519081016040528092919081815260200182805461072c906138a0565b80156107795780601f1061074e57610100808354040283529160200191610779565b820191906000526020600020905b81548152906001019060200180831161075c57829003601f168201915b5050505050905090565b600061078e82611490565b5061079882611518565b9050919050565b6107b182826107ac611555565b61155d565b5050565b6000600880549050905090565b6107ca612f00565b60006107d633846108eb565b90506107e18161156f565b915050919050565b600073ffffffffffffffffffffffffffffffffffffffff168273ffffffffffffffffffffffffffffffffffffffff160361085b5760006040517f64a0ae92000000000000000000000000000000000000000000000000000000008152600401610852919061318d565b60405180910390fd5b600061086f838361086a611555565b6117d8565b90508373ffffffffffffffffffffffffffffffffffffffff168173ffffffffffffffffffffffffffffffffffffffff16146108e5578382826040517f64283d7b0000000000000000000000000000000000000000000000000000000081526004016108dc939291906138d1565b60405180910390fd5b50505050565b60006108f683610f25565b821061093b5782826040517fa57d13dc000000000000000000000000000000000000000000000000000000008152600401610932929190613908565b60405180910390fd5b600660008473ffffffffffffffffffffffffffffffffffffffff1673ffffffffffffffffffffffffffffffffffffffff168152602001908152602001600020600083815260200190815260200160002054905092915050565b600067016345785d8a0000905060006109ac826117ee565b9050600081836109bc9190613960565b905080871015610a01576040517f08c379a00000000000000000000000000000000000000000000000000000000081526004016109f890613a06565b60405180910390fd5b600c60009054906101000a900473ffffffffffffffffffffffffffffffffffffffff1673ffffffffffffffffffffffffffffffffffffffff166323b872dd33308a6040518463ffffffff1660e01b8152600401610a6093929190613a26565b6020604051808303816000875af1158015610a7f573d6000803e3d6000fd5b505050506040513d601f19601f82011682018060405250810190610aa39190613a72565b610ae2576040517f08c379a0000000000000000000000000000000000000000000000000000000008152600401610ad990613aeb565b60405180910390fd5b6000610aed886117ee565b90508060106000828254610b019190613960565b9250508190555060008189610b169190613b0b565b90506000600d6000815480929190610b2d90613b3f565b919050559050610b3d8b8261182f565b610b47818861184d565b6040518061012001604052808281526020018381526020018a81526020018981526020013373ffffffffffffffffffffffffffffffffffffffff16815260200160001515815260200160001515815260200142815260200160011515815250600e600083815260200190815260200160002060008201518160000155602082015181600101556040820151816002019081610be29190613d29565b506060820151816003019081610bf89190613d29565b5060808201518160040160006101000a81548173ffffffffffffffffffffffffffffffffffffffff021916908373ffffffffffffffffffffffffffffffffffffffff16021790555060a08201518160040160146101000a81548160ff02191690831515021790555060c08201518160040160156101000a81548160ff02191690831515021790555060e082015181600501556101008201518160060160006101000a81548160ff021916908315150217905550905050600f60003373ffffffffffffffffffffffffffffffffffffffff1673ffffffffffffffffffffffffffffffffffffffff1681526020019081526020016000208190806001815401808255809150506001900390600052602060002001600090919091909150555050505050505050505050565b610d3c83838360405180602001604052806000815250611264565b505050565b610d496118a9565b6000601154601054610d5b9190613b0b565b905060008111610da0576040517f08c379a0000000000000000000000000000000000000000000000000000000008152600401610d9790613e47565b60405180910390fd5b601054601181905550600c60009054906101000a900473ffffffffffffffffffffffffffffffffffffffff1673ffffffffffffffffffffffffffffffffffffffff1663a9059cbb33836040518363ffffffff1660e01b8152600401610e06929190613908565b6020604051808303816000875af1158015610e25573d6000803e3d6000fd5b505050506040513d601f19601f82011682018060405250810190610e499190613a72565b610e88576040517f08c379a0000000000000000000000000000000000000000000000000000000008152600401610e7f90613eb3565b60405180910390fd5b50565b6000610e956107b5565b8210610edb576000826040517fa57d13dc000000000000000000000000000000000000000000000000000000008152600401610ed2929190613908565b60405180910390fd5b60088281548110610eef57610eee613ed3565b5b90600052602060002001549050919050565b6000610f0b6118a9565b601054905090565b6000610f1e82611490565b9050919050565b60008073ffffffffffffffffffffffffffffffffffffffff168273ffffffffffffffffffffffffffffffffffffffff1603610f985760006040517f89c62b64000000000000000000000000000000000000000000000000000000008152600401610f8f919061318d565b60405180910390fd5b600360008373ffffffffffffffffffffffffffffffffffffffff1673ffffffffffffffffffffffffffffffffffffffff168152602001908152602001600020549050919050565b610fe76118a9565b610ff16000611930565b565b610ffb612f00565b6000600f60003373ffffffffffffffffffffffffffffffffffffffff1673ffffffffffffffffffffffffffffffffffffffff16815260200190815260200160002080548060200260200160405190810160405280929190818152602001828054801561108657602002820191906000526020600020905b815481526020019060010190808311611072575b50505050509050828151116110d0576040517f08c379a00000000000000000000000000000000000000000000000000000000081526004016110c790613f4e565b60405180910390fd5b60008184815181106110e5576110e4613ed3565b5b602002602001015190506110f88161156f565b92505050919050565b6000600b60009054906101000a900473ffffffffffffffffffffffffffffffffffffffff16905090565b60606001805461113a906138a0565b80601f0160208091040260200160405190810160405280929190818152602001828054611166906138a0565b80156111b35780601f10611188576101008083540402835291602001916111b3565b820191906000526020600020905b81548152906001019060200180831161119657829003601f168201915b5050505050905090565b3373ffffffffffffffffffffffffffffffffffffffff166111dd82610f13565b73ffffffffffffffffffffffffffffffffffffffff1614611233576040517f08c379a000000000000000000000000000000000000000000000000000000000815260040161122a90613fba565b60405180910390fd5b600061123e8261156f565b905061124a81336119f6565b5050565b611260611259611555565b8383611b87565b5050565b61126f8484846107e9565b61127b84848484611cf6565b50505050565b606061128c82611ead565b9050919050565b6000600560008473ffffffffffffffffffffffffffffffffffffffff1673ffffffffffffffffffffffffffffffffffffffff16815260200190815260200160002060008373ffffffffffffffffffffffffffffffffffffffff1673ffffffffffffffffffffffffffffffffffffffff16815260200190815260200160002060009054906101000a900460ff16905092915050565b61132f6118a9565b600073ffffffffffffffffffffffffffffffffffffffff168173ffffffffffffffffffffffffffffffffffffffff16036113a15760006040517f1e4fbdf7000000000000000000000000000000000000000000000000000000008152600401611398919061318d565b60405180910390fd5b6113aa81611930565b50565b60006113b76118a9565b601154905090565b600c60009054906101000a900473ffffffffffffffffffffffffffffffffffffffff1681565b6000600f60003373ffffffffffffffffffffffffffffffffffffffff1673ffffffffffffffffffffffffffffffffffffffff16815260200190815260200160002080549050905090565b6000634906490660e01b7bffffffffffffffffffffffffffffffffffffffffffffffffffffffff1916827bffffffffffffffffffffffffffffffffffffffffffffffffffffffff19161480611489575061148882611fc0565b5b9050919050565b60008061149c8361203a565b9050600073ffffffffffffffffffffffffffffffffffffffff168173ffffffffffffffffffffffffffffffffffffffff160361150f57826040517f7e2732890000000000000000000000000000000000000000000000000000000081526004016115069190613223565b60405180910390fd5b80915050919050565b60006004600083815260200190815260200160002060009054906101000a900473ffffffffffffffffffffffffffffffffffffffff169050919050565b600033905090565b61156a8383836001612077565b505050565b611577612f00565b6000600e60008481526020019081526020016000206040518061012001604052908160008201548152602001600182015481526020016002820180546115bc906138a0565b80601f01602080910402602001604051908101604052809291908181526020018280546115e8906138a0565b80156116355780601f1061160a57610100808354040283529160200191611635565b820191906000526020600020905b81548152906001019060200180831161161857829003601f168201915b5050505050815260200160038201805461164e906138a0565b80601f016020809104026020016040519081016040528092919081815260200182805461167a906138a0565b80156116c75780601f1061169c576101008083540402835291602001916116c7565b820191906000526020600020905b8154815290600101906020018083116116aa57829003601f168201915b505050505081526020016004820160009054906101000a900473ffffffffffffffffffffffffffffffffffffffff1673ffffffffffffffffffffffffffffffffffffffff1673ffffffffffffffffffffffffffffffffffffffff1681526020016004820160149054906101000a900460ff161515151581526020016004820160159054906101000a900460ff16151515158152602001600582015481526020016006820160009054906101000a900460ff1615151515815250509050600115158161010001511515146117cf576040517f08c379a00000000000000000000000000000000000000000000000000000000081526004016117c690614026565b60405180910390fd5b80915050919050565b60006117e584848461223c565b90509392505050565b60008060696005846118009190614046565b61180a91906140b7565b90506000670de0b6b3a7640000905080821115611825578091505b8192505050919050565b611849828260405180602001604052806000815250612359565b5050565b80600a6000848152602001908152602001600020908161186d9190613d29565b507ff8e1a15aba9398e019f0b49df1a4fde98ee17ae345cb5f6b5e2c27f5033e8ce78260405161189d9190613223565b60405180910390a15050565b6118b1611555565b73ffffffffffffffffffffffffffffffffffffffff166118cf611101565b73ffffffffffffffffffffffffffffffffffffffff161461192e576118f2611555565b6040517f118cdaa7000000000000000000000000000000000000000000000000000000008152600401611925919061318d565b60405180910390fd5b565b6000600b60009054906101000a900473ffffffffffffffffffffffffffffffffffffffff16905081600b60006101000a81548173ffffffffffffffffffffffffffffffffffffffff021916908373ffffffffffffffffffffffffffffffffffffffff1602179055508173ffffffffffffffffffffffffffffffffffffffff168173ffffffffffffffffffffffffffffffffffffffff167f8be0079c531659141344cd1fd0a4f28419497f9722a3daafe3b4186f6b6457e060405160405180910390a35050565b600082602001519050600015158360a00151151514611a4a576040517f08c379a0000000000000000000000000000000000000000000000000000000008152600401611a419061415a565b60405180910390fd5b6001600e60008560000151815260200190815260200160002060040160146101000a81548160ff0219169083151502179055506000600e600085600001518152602001908152602001600020600101819055506000829050600c60009054906101000a900473ffffffffffffffffffffffffffffffffffffffff1673ffffffffffffffffffffffffffffffffffffffff1663a9059cbb82846040518363ffffffff1660e01b8152600401611aff92919061419b565b6020604051808303816000875af1158015611b1e573d6000803e3d6000fd5b505050506040513d601f19601f82011682018060405250810190611b429190613a72565b611b81576040517f08c379a0000000000000000000000000000000000000000000000000000000008152600401611b7890614210565b60405180910390fd5b50505050565b600073ffffffffffffffffffffffffffffffffffffffff168273ffffffffffffffffffffffffffffffffffffffff1603611bf857816040517f5b08ba18000000000000000000000000000000000000000000000000000000008152600401611bef919061318d565b60405180910390fd5b80600560008573ffffffffffffffffffffffffffffffffffffffff1673ffffffffffffffffffffffffffffffffffffffff16815260200190815260200160002060008473ffffffffffffffffffffffffffffffffffffffff1673ffffffffffffffffffffffffffffffffffffffff16815260200190815260200160002060006101000a81548160ff0219169083151502179055508173ffffffffffffffffffffffffffffffffffffffff168373ffffffffffffffffffffffffffffffffffffffff167f17307eab39ab6107e8899845ad3d59bd9653f200f220920489ca2b5937696c3183604051611ce9919061301c565b60405180910390a3505050565b60008373ffffffffffffffffffffffffffffffffffffffff163b1115611ea7578273ffffffffffffffffffffffffffffffffffffffff1663150b7a02611d3a611555565b8685856040518563ffffffff1660e01b8152600401611d5c9493929190614285565b6020604051808303816000875af1925050508015611d9857506040513d601f19601f82011682018060405250810190611d9591906142e6565b60015b611e1c573d8060008114611dc8576040519150601f19603f3d011682016040523d82523d6000602084013e611dcd565b606091505b506000815103611e1457836040517f64a0ae92000000000000000000000000000000000000000000000000000000008152600401611e0b919061318d565b60405180910390fd5b805181602001fd5b63150b7a0260e01b7bffffffffffffffffffffffffffffffffffffffffffffffffffffffff1916817bffffffffffffffffffffffffffffffffffffffffffffffffffffffff191614611ea557836040517f64a0ae92000000000000000000000000000000000000000000000000000000008152600401611e9c919061318d565b60405180910390fd5b505b50505050565b6060611eb882611490565b506000600a60008481526020019081526020016000208054611ed9906138a0565b80601f0160208091040260200160405190810160405280929190818152602001828054611f05906138a0565b8015611f525780601f10611f2757610100808354040283529160200191611f52565b820191906000526020600020905b815481529060010190602001808311611f3557829003601f168201915b505050505090506000611f63612375565b90506000815103611f78578192505050611fbb565b600082511115611fad578082604051602001611f9592919061434f565b60405160208183030381529060405292505050611fbb565b611fb68461238c565b925050505b919050565b60007f780e9d63000000000000000000000000000000000000000000000000000000007bffffffffffffffffffffffffffffffffffffffffffffffffffffffff1916827bffffffffffffffffffffffffffffffffffffffffffffffffffffffff191614806120335750612032826123f5565b5b9050919050565b60006002600083815260200190815260200160002060009054906101000a900473ffffffffffffffffffffffffffffffffffffffff169050919050565b80806120b05750600073ffffffffffffffffffffffffffffffffffffffff168273ffffffffffffffffffffffffffffffffffffffff1614155b156121e45760006120c084611490565b9050600073ffffffffffffffffffffffffffffffffffffffff168373ffffffffffffffffffffffffffffffffffffffff161415801561212b57508273ffffffffffffffffffffffffffffffffffffffff168173ffffffffffffffffffffffffffffffffffffffff1614155b801561213e575061213c8184611293565b155b1561218057826040517fa9fbf51f000000000000000000000000000000000000000000000000000000008152600401612177919061318d565b60405180910390fd5b81156121e257838573ffffffffffffffffffffffffffffffffffffffff168273ffffffffffffffffffffffffffffffffffffffff167f8c5be1e5ebec7d5bd14f71427d1e84f3dd0314c0f7b2291e5b200ac8c7c3b92560405160405180910390a45b505b836004600085815260200190815260200160002060006101000a81548173ffffffffffffffffffffffffffffffffffffffff021916908373ffffffffffffffffffffffffffffffffffffffff16021790555050505050565b60008061224a8585856124d7565b9050600073ffffffffffffffffffffffffffffffffffffffff168173ffffffffffffffffffffffffffffffffffffffff160361228e57612289846126f1565b6122cd565b8473ffffffffffffffffffffffffffffffffffffffff168173ffffffffffffffffffffffffffffffffffffffff16146122cc576122cb818561273a565b5b5b600073ffffffffffffffffffffffffffffffffffffffff168573ffffffffffffffffffffffffffffffffffffffff160361230f5761230a8461289b565b61234e565b8473ffffffffffffffffffffffffffffffffffffffff168173ffffffffffffffffffffffffffffffffffffffff161461234d5761234c858561296c565b5b5b809150509392505050565b61236383836129f7565b6123706000848484611cf6565b505050565b606060405180602001604052806000815250905090565b606061239782611490565b5060006123a2612375565b905060008151116123c257604051806020016040528060008152506123ed565b806123cc84612af0565b6040516020016123dd92919061434f565b6040516020818303038152906040525b915050919050565b60007f80ac58cd000000000000000000000000000000000000000000000000000000007bffffffffffffffffffffffffffffffffffffffffffffffffffffffff1916827bffffffffffffffffffffffffffffffffffffffffffffffffffffffff191614806124c057507f5b5e139f000000000000000000000000000000000000000000000000000000007bffffffffffffffffffffffffffffffffffffffffffffffffffffffff1916827bffffffffffffffffffffffffffffffffffffffffffffffffffffffff1916145b806124d057506124cf82612bbe565b5b9050919050565b6000806124e38461203a565b9050600073ffffffffffffffffffffffffffffffffffffffff168373ffffffffffffffffffffffffffffffffffffffff161461252557612524818486612c28565b5b600073ffffffffffffffffffffffffffffffffffffffff168173ffffffffffffffffffffffffffffffffffffffff16146125b657612567600085600080612077565b6001600360008373ffffffffffffffffffffffffffffffffffffffff1673ffffffffffffffffffffffffffffffffffffffff168152602001908152602001600020600082825403925050819055505b600073ffffffffffffffffffffffffffffffffffffffff168573ffffffffffffffffffffffffffffffffffffffff1614612639576001600360008773ffffffffffffffffffffffffffffffffffffffff1673ffffffffffffffffffffffffffffffffffffffff168152602001908152602001600020600082825401925050819055505b846002600086815260200190815260200160002060006101000a81548173ffffffffffffffffffffffffffffffffffffffff021916908373ffffffffffffffffffffffffffffffffffffffff160217905550838573ffffffffffffffffffffffffffffffffffffffff168273ffffffffffffffffffffffffffffffffffffffff167fddf252ad1be2c89b69c2b068fc378daa952ba7f163c4a11628f55a4df523b3ef60405160405180910390a4809150509392505050565b6008805490506009600083815260200190815260200160002081905550600881908060018154018082558091505060019003906000526020600020016000909190919091505550565b600061274583610f25565b905060006007600084815260200190815260200160002054905081811461282a576000600660008673ffffffffffffffffffffffffffffffffffffffff1673ffffffffffffffffffffffffffffffffffffffff168152602001908152602001600020600084815260200190815260200160002054905080600660008773ffffffffffffffffffffffffffffffffffffffff1673ffffffffffffffffffffffffffffffffffffffff168152602001908152602001600020600084815260200190815260200160002081905550816007600083815260200190815260200160002081905550505b6007600084815260200190815260200160002060009055600660008573ffffffffffffffffffffffffffffffffffffffff1673ffffffffffffffffffffffffffffffffffffffff16815260200190815260200160002060008381526020019081526020016000206000905550505050565b600060016008805490506128af9190613b0b565b90506000600960008481526020019081526020016000205490506000600883815481106128df576128de613ed3565b5b90600052602060002001549050806008838154811061290157612900613ed3565b5b9060005260206000200181905550816009600083815260200190815260200160002081905550600960008581526020019081526020016000206000905560088054806129505761294f614373565b5b6001900381819060005260206000200160009055905550505050565b6000600161297984610f25565b6129839190613b0b565b905081600660008573ffffffffffffffffffffffffffffffffffffffff1673ffffffffffffffffffffffffffffffffffffffff168152602001908152602001600020600083815260200190815260200160002081905550806007600084815260200190815260200160002081905550505050565b600073ffffffffffffffffffffffffffffffffffffffff168273ffffffffffffffffffffffffffffffffffffffff1603612a695760006040517f64a0ae92000000000000000000000000000000000000000000000000000000008152600401612a60919061318d565b60405180910390fd5b6000612a77838360006117d8565b9050600073ffffffffffffffffffffffffffffffffffffffff168173ffffffffffffffffffffffffffffffffffffffff1614612aeb5760006040517f73c6ac6e000000000000000000000000000000000000000000000000000000008152600401612ae2919061318d565b60405180910390fd5b505050565b606060006001612aff84612cec565b01905060008167ffffffffffffffff811115612b1e57612b1d613400565b5b6040519080825280601f01601f191660200182016040528015612b505781602001600182028036833780820191505090505b509050600082602001820190505b600115612bb3578080600190039150507f3031323334353637383961626364656600000000000000000000000000000000600a86061a8153600a8581612ba757612ba6614088565b5b04945060008503612b5e575b819350505050919050565b60007f01ffc9a7000000000000000000000000000000000000000000000000000000007bffffffffffffffffffffffffffffffffffffffffffffffffffffffff1916827bffffffffffffffffffffffffffffffffffffffffffffffffffffffff1916149050919050565b612c33838383612e3f565b612ce757600073ffffffffffffffffffffffffffffffffffffffff168373ffffffffffffffffffffffffffffffffffffffff1603612ca857806040517f7e273289000000000000000000000000000000000000000000000000000000008152600401612c9f9190613223565b60405180910390fd5b81816040517f177e802f000000000000000000000000000000000000000000000000000000008152600401612cde929190613908565b60405180910390fd5b505050565b600080600090507a184f03e93ff9f4daa797ed6e38ed64bf6a1f0100000000000000008310612d4a577a184f03e93ff9f4daa797ed6e38ed64bf6a1f0100000000000000008381612d4057612d3f614088565b5b0492506040810190505b6d04ee2d6d415b85acef81000000008310612d87576d04ee2d6d415b85acef81000000008381612d7d57612d7c614088565b5b0492506020810190505b662386f26fc100008310612db657662386f26fc100008381612dac57612dab614088565b5b0492506010810190505b6305f5e1008310612ddf576305f5e1008381612dd557612dd4614088565b5b0492506008810190505b6127108310612e04576127108381612dfa57612df9614088565b5b0492506004810190505b60648310612e275760648381612e1d57612e1c614088565b5b0492506002810190505b600a8310612e36576001810190505b80915050919050565b60008073ffffffffffffffffffffffffffffffffffffffff168373ffffffffffffffffffffffffffffffffffffffff1614158015612ef757508273ffffffffffffffffffffffffffffffffffffffff168473ffffffffffffffffffffffffffffffffffffffff161480612eb85750612eb78484611293565b5b80612ef657508273ffffffffffffffffffffffffffffffffffffffff16612ede83611518565b73ffffffffffffffffffffffffffffffffffffffff16145b5b90509392505050565b60405180610120016040528060008152602001600081526020016060815260200160608152602001600073ffffffffffffffffffffffffffffffffffffffff168152602001600015158152602001600015158152602001600081526020016000151581525090565b6000604051905090565b600080fd5b600080fd5b60007fffffffff0000000000000000000000000000000000000000000000000000000082169050919050565b612fb181612f7c565b8114612fbc57600080fd5b50565b600081359050612fce81612fa8565b92915050565b600060208284031215612fea57612fe9612f72565b5b6000612ff884828501612fbf565b91505092915050565b60008115159050919050565b61301681613001565b82525050565b6000602082019050613031600083018461300d565b92915050565b600081519050919050565b600082825260208201905092915050565b60005b83811015613071578082015181840152602081019050613056565b60008484015250505050565b6000601f19601f8301169050919050565b600061309982613037565b6130a38185613042565b93506130b3818560208601613053565b6130bc8161307d565b840191505092915050565b600060208201905081810360008301526130e1818461308e565b905092915050565b6000819050919050565b6130fc816130e9565b811461310757600080fd5b50565b600081359050613119816130f3565b92915050565b60006020828403121561313557613134612f72565b5b60006131438482850161310a565b91505092915050565b600073ffffffffffffffffffffffffffffffffffffffff82169050919050565b60006131778261314c565b9050919050565b6131878161316c565b82525050565b60006020820190506131a2600083018461317e565b92915050565b6131b18161316c565b81146131bc57600080fd5b50565b6000813590506131ce816131a8565b92915050565b600080604083850312156131eb576131ea612f72565b5b60006131f9858286016131bf565b925050602061320a8582860161310a565b9150509250929050565b61321d816130e9565b82525050565b60006020820190506132386000830184613214565b92915050565b613247816130e9565b82525050565b600082825260208201905092915050565b600061326982613037565b613273818561324d565b9350613283818560208601613053565b61328c8161307d565b840191505092915050565b6132a08161316c565b82525050565b6132af81613001565b82525050565b6000610120830160008301516132ce600086018261323e565b5060208301516132e1602086018261323e565b50604083015184820360408601526132f9828261325e565b91505060608301518482036060860152613313828261325e565b91505060808301516133286080860182613297565b5060a083015161333b60a08601826132a6565b5060c083015161334e60c08601826132a6565b5060e083015161336160e086018261323e565b506101008301516133766101008601826132a6565b508091505092915050565b6000602082019050818103600083015261339b81846132b5565b905092915050565b6000806000606084860312156133bc576133bb612f72565b5b60006133ca868287016131bf565b93505060206133db868287016131bf565b92505060406133ec8682870161310a565b9150509250925092565b600080fd5b600080fd5b7f4e487b7100000000000000000000000000000000000000000000000000000000600052604160045260246000fd5b6134388261307d565b810181811067ffffffffffffffff8211171561345757613456613400565b5b80604052505050565b600061346a612f68565b9050613476828261342f565b919050565b600067ffffffffffffffff82111561349657613495613400565b5b61349f8261307d565b9050602081019050919050565b82818337600083830152505050565b60006134ce6134c98461347b565b613460565b9050828152602081018484840111156134ea576134e96133fb565b5b6134f58482856134ac565b509392505050565b600082601f830112613512576135116133f6565b5b81356135228482602086016134bb565b91505092915050565b600080600080600060a0868803121561354757613546612f72565b5b6000613555888289016131bf565b95505060206135668882890161310a565b945050604086013567ffffffffffffffff81111561358757613586612f77565b5b613593888289016134fd565b935050606086013567ffffffffffffffff8111156135b4576135b3612f77565b5b6135c0888289016134fd565b925050608086013567ffffffffffffffff8111156135e1576135e0612f77565b5b6135ed888289016134fd565b9150509295509295909350565b6000602082840312156136105761360f612f72565b5b600061361e848285016131bf565b91505092915050565b61363081613001565b811461363b57600080fd5b50565b60008135905061364d81613627565b92915050565b6000806040838503121561366a57613669612f72565b5b6000613678858286016131bf565b92505060206136898582860161363e565b9150509250929050565b600067ffffffffffffffff8211156136ae576136ad613400565b5b6136b78261307d565b9050602081019050919050565b60006136d76136d284613693565b613460565b9050828152602081018484840111156136f3576136f26133fb565b5b6136fe8482856134ac565b509392505050565b600082601f83011261371b5761371a6133f6565b5b813561372b8482602086016136c4565b91505092915050565b6000806000806080858703121561374e5761374d612f72565b5b600061375c878288016131bf565b945050602061376d878288016131bf565b935050604061377e8782880161310a565b925050606085013567ffffffffffffffff81111561379f5761379e612f77565b5b6137ab87828801613706565b91505092959194509250565b600080604083850312156137ce576137cd612f72565b5b60006137dc858286016131bf565b92505060206137ed858286016131bf565b9150509250929050565b6000819050919050565b600061381c6138176138128461314c565b6137f7565b61314c565b9050919050565b600061382e82613801565b9050919050565b600061384082613823565b9050919050565b61385081613835565b82525050565b600060208201905061386b6000830184613847565b92915050565b7f4e487b7100000000000000000000000000000000000000000000000000000000600052602260045260246000fd5b600060028204905060018216806138b857607f821691505b6020821081036138cb576138ca613871565b5b50919050565b60006060820190506138e6600083018661317e565b6138f36020830185613214565b613900604083018461317e565b949350505050565b600060408201905061391d600083018561317e565b61392a6020830184613214565b9392505050565b7f4e487b7100000000000000000000000000000000000000000000000000000000600052601160045260246000fd5b600061396b826130e9565b9150613976836130e9565b925082820190508082111561398e5761398d613931565b5b92915050565b7f4769667420636172642076616c7565206d75737420626520677265617465722060008201527f7468616e206f7220657175616c20746f20302e312043454c4f00000000000000602082015250565b60006139f0603983613042565b91506139fb82613994565b604082019050919050565b60006020820190508181036000830152613a1f816139e3565b9050919050565b6000606082019050613a3b600083018661317e565b613a48602083018561317e565b613a556040830184613214565b949350505050565b600081519050613a6c81613627565b92915050565b600060208284031215613a8857613a87612f72565b5b6000613a9684828501613a5d565b91505092915050565b7f4661696c656420746f207472616e7366657220746f6b656e7300000000000000600082015250565b6000613ad5601983613042565b9150613ae082613a9f565b602082019050919050565b60006020820190508181036000830152613b0481613ac8565b9050919050565b6000613b16826130e9565b9150613b21836130e9565b9250828203905081811115613b3957613b38613931565b5b92915050565b6000613b4a826130e9565b91507fffffffffffffffffffffffffffffffffffffffffffffffffffffffffffffffff8203613b7c57613b7b613931565b5b600182019050919050565b60008190508160005260206000209050919050565b60006020601f8301049050919050565b600082821b905092915050565b600060088302613be97fffffffffffffffffffffffffffffffffffffffffffffffffffffffffffffffff82613bac565b613bf38683613bac565b95508019841693508086168417925050509392505050565b6000613c26613c21613c1c846130e9565b6137f7565b6130e9565b9050919050565b6000819050919050565b613c4083613c0b565b613c54613c4c82613c2d565b848454613bb9565b825550505050565b600090565b613c69613c5c565b613c74818484613c37565b505050565b5b81811015613c9857613c8d600082613c61565b600181019050613c7a565b5050565b601f821115613cdd57613cae81613b87565b613cb784613b9c565b81016020851015613cc6578190505b613cda613cd285613b9c565b830182613c79565b50505b505050565b600082821c905092915050565b6000613d0060001984600802613ce2565b1980831691505092915050565b6000613d198383613cef565b9150826002028217905092915050565b613d3282613037565b67ffffffffffffffff811115613d4b57613d4a613400565b5b613d5582546138a0565b613d60828285613c9c565b600060209050601f831160018114613d935760008415613d81578287015190505b613d8b8582613d0d565b865550613df3565b601f198416613da186613b87565b60005b82811015613dc957848901518255600182019150602085019450602081019050613da4565b86831015613de65784890151613de2601f891682613cef565b8355505b6001600288020188555050505b505050505050565b7f4e6f206665657320746f20776974686472617720796574000000000000000000600082015250565b6000613e31601783613042565b9150613e3c82613dfb565b602082019050919050565b60006020820190508181036000830152613e6081613e24565b9050919050565b7f4661696c656420746f2077697468647261772066656573000000000000000000600082015250565b6000613e9d601783613042565b9150613ea882613e67565b602082019050919050565b60006020820190508181036000830152613ecc81613e90565b9050919050565b7f4e487b7100000000000000000000000000000000000000000000000000000000600052603260045260246000fd5b7f476966744e4654436172643a20676966742063617264206e6f7420666f756e64600082015250565b6000613f38602083613042565b9150613f4382613f02565b602082019050919050565b60006020820190508181036000830152613f6781613f2b565b9050919050565b7f43616c6c6572206973206e6f74206f776e657200000000000000000000000000600082015250565b6000613fa4601383613042565b9150613faf82613f6e565b602082019050919050565b60006020820190508181036000830152613fd381613f97565b9050919050565b7f476966742063617264206e6f7420666f756e6400000000000000000000000000600082015250565b6000614010601383613042565b915061401b82613fda565b602082019050919050565b6000602082019050818103600083015261403f81614003565b9050919050565b6000614051826130e9565b915061405c836130e9565b925082820261406a816130e9565b9150828204841483151761408157614080613931565b5b5092915050565b7f4e487b7100000000000000000000000000000000000000000000000000000000600052601260045260246000fd5b60006140c2826130e9565b91506140cd836130e9565b9250826140dd576140dc614088565b5b828204905092915050565b7f43616e6e6f7420756e7772617020616c726561647920756e777261707065642060008201527f6769667420636172640000000000000000000000000000000000000000000000602082015250565b6000614144602983613042565b915061414f826140e8565b604082019050919050565b6000602082019050818103600083015261417381614137565b9050919050565b600061418582613823565b9050919050565b6141958161417a565b82525050565b60006040820190506141b0600083018561418c565b6141bd6020830184613214565b9392505050565b7f4661696c656420746f20756e7772617020676966742063617264000000000000600082015250565b60006141fa601a83613042565b9150614205826141c4565b602082019050919050565b60006020820190508181036000830152614229816141ed565b9050919050565b600081519050919050565b600082825260208201905092915050565b600061425782614230565b614261818561423b565b9350614271818560208601613053565b61427a8161307d565b840191505092915050565b600060808201905061429a600083018761317e565b6142a7602083018661317e565b6142b46040830185613214565b81810360608301526142c6818461424c565b905095945050505050565b6000815190506142e081612fa8565b92915050565b6000602082840312156142fc576142fb612f72565b5b600061430a848285016142d1565b91505092915050565b600081905092915050565b600061432982613037565b6143338185614313565b9350614343818560208601613053565b80840191505092915050565b600061435b828561431e565b9150614367828461431e565b91508190509392505050565b7f4e487b7100000000000000000000000000000000000000000000000000000000600052603160045260246000fdfea2646970667358221220f115f57181ad9e30b1798e70a7986720537139ece61fe1080f69243d15c3f36e64736f6c63430008140033",
  "linkReferences": {},
  "deployedLinkReferences": {}
}